{
  "_format": "hh-sol-artifact-1",
  "contractName": "Rollup",
  "sourceName": "contracts/rollup/Rollup.sol",
  "abi": [
    {
      "inputs": [],
      "stateMutability": "nonpayable",
      "type": "constructor"
    },
    {
      "inputs": [
        {
          "internalType": "address",
          "name": "target",
          "type": "address"
        }
      ],
      "name": "AddressEmptyCode",
      "type": "error"
    },
    {
      "inputs": [],
      "name": "AddressZero",
      "type": "error"
    },
    {
      "inputs": [],
      "name": "BlockNumberOutOfRange",
      "type": "error"
    },
    {
      "inputs": [
        {
          "internalType": "address",
          "name": "implementation",
          "type": "address"
        }
      ],
      "name": "ERC1967InvalidImplementation",
      "type": "error"
    },
    {
      "inputs": [],
      "name": "ERC1967NonPayable",
      "type": "error"
    },
    {
      "inputs": [],
      "name": "FailedCall",
      "type": "error"
    },
    {
      "inputs": [],
      "name": "InsufficientPenaltyFee",
      "type": "error"
    },
    {
      "inputs": [],
      "name": "InvalidInitialization",
      "type": "error"
    },
    {
      "inputs": [],
      "name": "MerkleTreeFull",
      "type": "error"
    },
    {
      "inputs": [],
      "name": "NotInitializing",
      "type": "error"
    },
    {
      "inputs": [],
      "name": "OnlyLiquidity",
      "type": "error"
    },
    {
      "inputs": [],
      "name": "OnlyScrollMessenger",
      "type": "error"
    },
    {
      "inputs": [
        {
          "internalType": "address",
          "name": "owner",
          "type": "address"
        }
      ],
      "name": "OwnableInvalidOwner",
      "type": "error"
    },
    {
      "inputs": [
        {
          "internalType": "address",
          "name": "account",
          "type": "address"
        }
      ],
      "name": "OwnableUnauthorizedAccount",
      "type": "error"
    },
    {
      "inputs": [
        {
          "internalType": "uint256",
          "name": "x",
          "type": "uint256"
        },
        {
          "internalType": "uint256",
          "name": "y",
          "type": "uint256"
        }
      ],
      "name": "PRBMath_MulDiv18_Overflow",
      "type": "error"
    },
    {
      "inputs": [
        {
          "internalType": "uint256",
          "name": "x",
          "type": "uint256"
        }
      ],
      "name": "PRBMath_UD60x18_Convert_Overflow",
      "type": "error"
    },
    {
      "inputs": [],
      "name": "PairingCheckFailed",
      "type": "error"
    },
    {
      "inputs": [],
      "name": "PairingOpCodeFailed",
      "type": "error"
    },
    {
      "inputs": [],
      "name": "SenderAccountIdsInvalidLength",
      "type": "error"
    },
    {
      "inputs": [],
      "name": "TooManyAccountIds",
      "type": "error"
    },
    {
      "inputs": [],
      "name": "TooManySenderPublicKeys",
      "type": "error"
    },
    {
      "inputs": [],
      "name": "UUPSUnauthorizedCallContext",
      "type": "error"
    },
    {
      "inputs": [
        {
          "internalType": "bytes32",
          "name": "slot",
          "type": "bytes32"
        }
      ],
      "name": "UUPSUnsupportedProxiableUUID",
      "type": "error"
    },
    {
      "anonymous": false,
      "inputs": [
        {
          "indexed": true,
          "internalType": "uint256",
          "name": "blockNumber",
          "type": "uint256"
        },
        {
          "indexed": false,
          "internalType": "bytes",
          "name": "accountIds",
          "type": "bytes"
        }
      ],
      "name": "AccountIdsPosted",
      "type": "event"
    },
    {
      "anonymous": false,
      "inputs": [
        {
          "indexed": true,
          "internalType": "bytes32",
          "name": "prevBlockHash",
          "type": "bytes32"
        },
        {
          "indexed": true,
          "internalType": "address",
          "name": "blockBuilder",
          "type": "address"
        },
        {
          "indexed": false,
          "internalType": "uint256",
          "name": "blockNumber",
          "type": "uint256"
        },
        {
          "indexed": false,
          "internalType": "bytes32",
          "name": "depositTreeRoot",
          "type": "bytes32"
        },
        {
          "indexed": false,
          "internalType": "bytes32",
          "name": "signatureHash",
          "type": "bytes32"
        }
      ],
      "name": "BlockPosted",
      "type": "event"
    },
    {
      "anonymous": false,
      "inputs": [
        {
          "indexed": true,
          "internalType": "uint32",
          "name": "depositIndex",
          "type": "uint32"
        },
        {
          "indexed": true,
          "internalType": "bytes32",
          "name": "depositHash",
          "type": "bytes32"
        }
      ],
      "name": "DepositLeafInserted",
      "type": "event"
    },
    {
      "anonymous": false,
      "inputs": [
        {
          "indexed": true,
          "internalType": "uint256",
          "name": "lastProcessedDepositId",
          "type": "uint256"
        },
        {
          "indexed": false,
          "internalType": "bytes32",
          "name": "depositTreeRoot",
          "type": "bytes32"
        }
      ],
      "name": "DepositsProcessed",
      "type": "event"
    },
    {
      "anonymous": false,
      "inputs": [
        {
          "indexed": false,
          "internalType": "uint64",
          "name": "version",
          "type": "uint64"
        }
      ],
      "name": "Initialized",
      "type": "event"
    },
    {
      "anonymous": false,
      "inputs": [
        {
          "indexed": true,
          "internalType": "address",
          "name": "previousOwner",
          "type": "address"
        },
        {
          "indexed": true,
          "internalType": "address",
          "name": "newOwner",
          "type": "address"
        }
      ],
      "name": "OwnershipTransferred",
      "type": "event"
    },
    {
      "anonymous": false,
      "inputs": [
        {
          "indexed": true,
          "internalType": "uint256",
          "name": "blockNumber",
          "type": "uint256"
        },
        {
          "indexed": false,
          "internalType": "uint256[]",
          "name": "senderPublicKeys",
          "type": "uint256[]"
        }
      ],
      "name": "PubKeysPosted",
      "type": "event"
    },
    {
      "anonymous": false,
      "inputs": [
        {
          "indexed": true,
          "internalType": "address",
          "name": "implementation",
          "type": "address"
        }
      ],
      "name": "Upgraded",
      "type": "event"
    },
    {
      "inputs": [],
      "name": "UPGRADE_INTERFACE_VERSION",
      "outputs": [
        {
          "internalType": "string",
          "name": "",
          "type": "string"
        }
      ],
      "stateMutability": "view",
      "type": "function"
    },
    {
      "inputs": [
        {
          "internalType": "uint256",
          "name": "",
          "type": "uint256"
        }
      ],
      "name": "blockBuilders",
      "outputs": [
        {
          "internalType": "address",
          "name": "",
          "type": "address"
        }
      ],
      "stateMutability": "view",
      "type": "function"
    },
    {
      "inputs": [
        {
          "internalType": "uint256",
          "name": "",
          "type": "uint256"
        }
      ],
      "name": "blockHashes",
      "outputs": [
        {
          "internalType": "bytes32",
          "name": "",
          "type": "bytes32"
        }
      ],
      "stateMutability": "view",
      "type": "function"
    },
    {
      "inputs": [],
      "name": "depositIndex",
      "outputs": [
        {
          "internalType": "uint32",
          "name": "",
          "type": "uint32"
        }
      ],
      "stateMutability": "view",
      "type": "function"
    },
    {
      "inputs": [],
      "name": "depositTreeRoot",
      "outputs": [
        {
          "internalType": "bytes32",
          "name": "",
          "type": "bytes32"
        }
      ],
      "stateMutability": "view",
      "type": "function"
    },
    {
      "inputs": [
        {
          "internalType": "uint32",
          "name": "blockNumber",
          "type": "uint32"
        }
      ],
      "name": "getBlockBuilder",
      "outputs": [
        {
          "internalType": "address",
          "name": "",
          "type": "address"
        }
      ],
      "stateMutability": "view",
      "type": "function"
    },
    {
      "inputs": [
        {
          "internalType": "uint32",
          "name": "blockNumber",
          "type": "uint32"
        }
      ],
      "name": "getBlockHash",
      "outputs": [
        {
          "internalType": "bytes32",
          "name": "",
          "type": "bytes32"
        }
      ],
      "stateMutability": "view",
      "type": "function"
    },
    {
      "inputs": [],
      "name": "getLatestBlockNumber",
      "outputs": [
        {
          "internalType": "uint32",
          "name": "",
          "type": "uint32"
        }
      ],
      "stateMutability": "view",
      "type": "function"
    },
    {
      "inputs": [
        {
          "internalType": "address",
          "name": "_scrollMessenger",
          "type": "address"
        },
        {
          "internalType": "address",
          "name": "_liquidity",
          "type": "address"
        },
        {
          "internalType": "address",
          "name": "_contribution",
          "type": "address"
        }
      ],
      "name": "initialize",
      "outputs": [],
      "stateMutability": "nonpayable",
      "type": "function"
    },
    {
      "inputs": [],
      "name": "lastProcessedDepositId",
      "outputs": [
        {
          "internalType": "uint256",
          "name": "",
          "type": "uint256"
        }
      ],
      "stateMutability": "view",
      "type": "function"
    },
    {
      "inputs": [],
      "name": "owner",
      "outputs": [
        {
          "internalType": "address",
          "name": "",
          "type": "address"
        }
      ],
      "stateMutability": "view",
      "type": "function"
    },
    {
      "inputs": [
        {
          "internalType": "bytes32",
          "name": "txTreeRoot",
          "type": "bytes32"
        },
        {
          "internalType": "bytes16",
          "name": "senderFlags",
          "type": "bytes16"
        },
        {
          "internalType": "bytes32[2]",
          "name": "aggregatedPublicKey",
          "type": "bytes32[2]"
        },
        {
          "internalType": "bytes32[4]",
          "name": "aggregatedSignature",
          "type": "bytes32[4]"
        },
        {
          "internalType": "bytes32[4]",
          "name": "messagePoint",
          "type": "bytes32[4]"
        },
        {
          "internalType": "bytes32",
          "name": "publicKeysHash",
          "type": "bytes32"
        },
        {
          "internalType": "bytes",
          "name": "senderAccountIds",
          "type": "bytes"
        }
      ],
      "name": "postNonRegistrationBlock",
      "outputs": [],
      "stateMutability": "payable",
      "type": "function"
    },
    {
      "inputs": [
        {
          "internalType": "bytes32",
          "name": "txTreeRoot",
          "type": "bytes32"
        },
        {
          "internalType": "bytes16",
          "name": "senderFlags",
          "type": "bytes16"
        },
        {
          "internalType": "bytes32[2]",
          "name": "aggregatedPublicKey",
          "type": "bytes32[2]"
        },
        {
          "internalType": "bytes32[4]",
          "name": "aggregatedSignature",
          "type": "bytes32[4]"
        },
        {
          "internalType": "bytes32[4]",
          "name": "messagePoint",
          "type": "bytes32[4]"
        },
        {
          "internalType": "uint256[]",
          "name": "senderPublicKeys",
          "type": "uint256[]"
        }
      ],
      "name": "postRegistrationBlock",
      "outputs": [],
      "stateMutability": "payable",
      "type": "function"
    },
    {
      "inputs": [
        {
          "internalType": "uint256",
          "name": "_lastProcessedDepositId",
          "type": "uint256"
        },
        {
          "internalType": "bytes32[]",
          "name": "depositHashes",
          "type": "bytes32[]"
        }
      ],
      "name": "processDeposits",
      "outputs": [],
      "stateMutability": "nonpayable",
      "type": "function"
    },
    {
      "inputs": [],
      "name": "proxiableUUID",
      "outputs": [
        {
          "internalType": "bytes32",
          "name": "",
          "type": "bytes32"
        }
      ],
      "stateMutability": "view",
      "type": "function"
    },
    {
      "inputs": [],
      "name": "renounceOwnership",
      "outputs": [],
      "stateMutability": "nonpayable",
      "type": "function"
    },
    {
      "inputs": [
        {
          "internalType": "address",
          "name": "newOwner",
          "type": "address"
        }
      ],
      "name": "transferOwnership",
      "outputs": [],
      "stateMutability": "nonpayable",
      "type": "function"
    },
    {
      "inputs": [
        {
          "internalType": "address",
          "name": "newImplementation",
          "type": "address"
        },
        {
          "internalType": "bytes",
          "name": "data",
          "type": "bytes"
        }
      ],
      "name": "upgradeToAndCall",
      "outputs": [],
      "stateMutability": "payable",
      "type": "function"
    },
    {
      "inputs": [
        {
          "internalType": "address",
          "name": "to",
          "type": "address"
        }
      ],
      "name": "withdrawPenaltyFee",
      "outputs": [],
      "stateMutability": "nonpayable",
      "type": "function"
    }
  ],
  "bytecode": "0x60a06040523073ffffffffffffffffffffffffffffffffffffffff1660809073ffffffffffffffffffffffffffffffffffffffff1681525034801561004357600080fd5b5061005261005760201b60201c565b6101c1565b600061006761015b60201b60201c565b90508060000160089054906101000a900460ff16156100b2576040517ff92ee8a900000000000000000000000000000000000000000000000000000000815260040160405180910390fd5b67ffffffffffffffff80168160000160009054906101000a900467ffffffffffffffff1667ffffffffffffffff16146101585767ffffffffffffffff8160000160006101000a81548167ffffffffffffffff021916908367ffffffffffffffff1602179055507fc7f505b2f371ae2175ee4913f4499e1f2633a7b5936321eed1cdaeb6115181d267ffffffffffffffff60405161014f91906101a6565b60405180910390a15b50565b60007ff0c57e16840df040f15088dc2f81fe391c3923bec73e23a9662efc9c229c6a00905090565b600067ffffffffffffffff82169050919050565b6101a081610183565b82525050565b60006020820190506101bb6000830184610197565b92915050565b608051613a266101ea600039600081816113e30152818161143801526115f30152613a266000f3fe6080604052600436106101145760003560e01c8063842f1bfc116100a0578063c76c388411610064578063c76c388414610373578063c7bffeeb1461039e578063d2b210a1146103ba578063f03efa37146103f7578063f2fde38b1461042057610114565b8063842f1bfc1461029b5780638da5cb5b146102b7578063ad3cb1cc146102e2578063b568a0551461030d578063c0c53b8b1461034a57610114565b80634f1ef286116100e75780634f1ef286146101e757806352d1902d14610203578063567419c11461022e578063715018a6146102595780637b8989391461027057610114565b806306f743c0146101195780631d9a07b91461015657806325d89cfd1461018157806334cdf78d146101aa575b600080fd5b34801561012557600080fd5b50610140600480360381019061013b919061274c565b610449565b60405161014d91906127ba565b60405180910390f35b34801561016257600080fd5b5061016b6104e5565b60405161017891906127ee565b60405180910390f35b34801561018d57600080fd5b506101a860048036038101906101a39190612835565b6104eb565b005b3480156101b657600080fd5b506101d160048036038101906101cc9190612898565b61053d565b6040516101de91906127ee565b60405180910390f35b61020160048036038101906101fc9190612a0b565b610561565b005b34801561020f57600080fd5b50610218610580565b60405161022591906127ee565b60405180910390f35b34801561023a57600080fd5b506102436105b3565b6040516102509190612a76565b60405180910390f35b34801561026557600080fd5b5061026e6105b9565b005b34801561027c57600080fd5b506102856105cd565b6040516102929190612aa0565b60405180910390f35b6102b560048036038101906102b09190612be3565b6105e3565b005b3480156102c357600080fd5b506102cc610852565b6040516102d991906127ba565b60405180910390f35b3480156102ee57600080fd5b506102f761088a565b6040516103049190612d28565b60405180910390f35b34801561031957600080fd5b50610334600480360381019061032f9190612898565b6108c3565b60405161034191906127ba565b60405180910390f35b34801561035657600080fd5b50610371600480360381019061036c9190612d4a565b610902565b005b34801561037f57600080fd5b50610388610d8e565b6040516103959190612aa0565b60405180910390f35b6103b860048036038101906103b39190612df3565b610dab565b005b3480156103c657600080fd5b506103e160048036038101906103dc919061274c565b610f28565b6040516103ee91906127ee565b60405180910390f35b34801561040357600080fd5b5061041e60048036038101906104199190612efb565b610fa4565b005b34801561042c57600080fd5b5061044760048036038101906104429190612835565b6112c6565b005b6000610455600261134c565b63ffffffff168263ffffffff1610610499576040517f98f1199600000000000000000000000000000000000000000000000000000000815260040160405180910390fd5b60038263ffffffff16815481106104b3576104b2612f5b565b5b9060005260206000200160009054906101000a900473ffffffffffffffffffffffffffffffffffffffff169050919050565b602a5481565b6104f361135a565b8073ffffffffffffffffffffffffffffffffffffffff166108fc479081150290604051600060405180830381858888f19350505050158015610539573d6000803e3d6000fd5b5050565b6002818154811061054d57600080fd5b906000526020600020016000915090505481565b6105696113e1565b610572826114c7565b61057c82826114d2565b5050565b600061058a6115f1565b7f360894a13ba1a3210667c828492db98dca3e2076cc3735a920a3ca505d382bbc60001b905090565b60015481565b6105c161135a565b6105cb6000611678565b565b602b60009054906101000a900463ffffffff1681565b6105eb61174f565b6000828290509050600560806106019190612fb9565b81111561063a576040517f6771216a00000000000000000000000000000000000000000000000000000000815260040160405180910390fd5b6000600582610649919061302a565b14610680576040517f41adec0d00000000000000000000000000000000000000000000000000000000815260040160405180910390fd5b600061068c600261134c565b90508063ffffffff167f7e4f72212a0dbcb829e5fdaad6c3cb28556083f04fc687bfa2b2e40432bbb93585856040516106c6929190613099565b60405180910390a26000600560806106de9190612fb9565b67ffffffffffffffff8111156106f7576106f66128e0565b5b6040519080825280601f01601f1916602001820160405280156107295781602001600182028036833780820191505090505b50905060005b838110156107a35785858281811061074a57610749612f5b565b5b9050013560f81c60f81b82828151811061076757610766612f5b565b5b60200101907effffffffffffffffffffffffffffffffffffffffffffffffffffffffffffff1916908160001a905350808060010191505061072f565b5060008390505b600560806107b89190612fb9565b81101561082657600160f81b826004836107d291906130bd565b815181106107e3576107e2612f5b565b5b60200101907effffffffffffffffffffffffffffffffffffffffffffffffffffffffffffff1916908160001a90535060058161081f91906130bd565b90506107aa565b5060008180519060200120905061084460008d8d8a858f8f8f611803565b505050505050505050505050565b60008061085d611a59565b90508060000160009054906101000a900473ffffffffffffffffffffffffffffffffffffffff1691505090565b6040518060400160405280600581526020017f352e302e3000000000000000000000000000000000000000000000000000000081525081565b600381815481106108d357600080fd5b906000526020600020016000915054906101000a900473ffffffffffffffffffffffffffffffffffffffff1681565b600061090c611a81565b905060008160000160089054906101000a900460ff1615905060008260000160009054906101000a900467ffffffffffffffff1690506000808267ffffffffffffffff1614801561095a5750825b9050600060018367ffffffffffffffff1614801561098f575060003073ffffffffffffffffffffffffffffffffffffffff163b145b90508115801561099d575080155b156109d4576040517ff92ee8a900000000000000000000000000000000000000000000000000000000815260040160405180910390fd5b60018560000160006101000a81548167ffffffffffffffff021916908367ffffffffffffffff1602179055508315610a245760018560000160086101000a81548160ff0219169083151502179055505b600073ffffffffffffffffffffffffffffffffffffffff168873ffffffffffffffffffffffffffffffffffffffff1603610a8a576040517f9fabe1c100000000000000000000000000000000000000000000000000000000815260040160405180910390fd5b600073ffffffffffffffffffffffffffffffffffffffff168773ffffffffffffffffffffffffffffffffffffffff1603610af0576040517f9fabe1c100000000000000000000000000000000000000000000000000000000815260040160405180910390fd5b600073ffffffffffffffffffffffffffffffffffffffff168673ffffffffffffffffffffffffffffffffffffffff1603610b56576040517f9fabe1c100000000000000000000000000000000000000000000000000000000815260040160405180910390fd5b610b66610b61611aa9565b611ab1565b610b6e611ac5565b610b786006611acf565b87600460006101000a81548173ffffffffffffffffffffffffffffffffffffffff021916908373ffffffffffffffffffffffffffffffffffffffff160217905550866000806101000a81548173ffffffffffffffffffffffffffffffffffffffff021916908373ffffffffffffffffffffffffffffffffffffffff16021790555085600560006101000a81548173ffffffffffffffffffffffffffffffffffffffff021916908373ffffffffffffffffffffffffffffffffffffffff160217905550610ca8600660405180606001604052908160008201602080602002604051908101604052809291908260208015610c86576020028201915b815481526020019060010190808311610c72575b5050505050815260200160208201548152602001602182015481525050611b08565b602a81905550610cc4602a546002611bf890919063ffffffff16565b600360009080600181540180825580915050600190039060005260206000200160009091909190916101000a81548173ffffffffffffffffffffffffffffffffffffffff021916908373ffffffffffffffffffffffffffffffffffffffff1602179055508315610d845760008560000160086101000a81548160ff0219169083151502179055507fc7f505b2f371ae2175ee4913f4499e1f2633a7b5936321eed1cdaeb6115181d26001604051610d7b919061314a565b60405180910390a15b5050505050505050565b60006001610d9c600261134c565b610da69190613165565b905090565b610db361174f565b60008282905090506080811115610df6576040517f07b556c900000000000000000000000000000000000000000000000000000000815260040160405180910390fd5b6000610e02600261134c565b90508063ffffffff167f7a873ae11bb72d3848d5c34af1354cdd12aa5b30ec0d5187ec00ba5cefcd5c7f8585604051610e3c929190613218565b60405180910390a2610e4c6126b7565b60005b83811015610e9a57858582818110610e6a57610e69612f5b565b5b90506020020135828260808110610e8457610e83612f5b565b5b6020020181815250508080600101915050610e4f565b5060008390505b6080811015610ed5576001828260808110610ebf57610ebe612f5b565b5b6020020181815250508080600101915050610ea1565b50600081604051602001610ee991906132e7565b60405160208183030381529060405280519060200120905060008060001b9050610f1a60018d8d85858f8f8f611803565b505050505050505050505050565b6000610f34600261134c565b63ffffffff168263ffffffff1610610f78576040517f98f1199600000000000000000000000000000000000000000000000000000000815260040160405180910390fd5b60028263ffffffff1681548110610f9257610f91612f5b565b5b90600052602060002001549050919050565b6000600460009054906101000a900473ffffffffffffffffffffffffffffffffffffffff1690508073ffffffffffffffffffffffffffffffffffffffff16610fea611aa9565b73ffffffffffffffffffffffffffffffffffffffff1614611037576040517fdbeadcfd00000000000000000000000000000000000000000000000000000000815260040160405180910390fd5b8073ffffffffffffffffffffffffffffffffffffffff16636e296e456040518163ffffffff1660e01b8152600401602060405180830381865afa158015611082573d6000803e3d6000fd5b505050506040513d601f19601f820116820180604052508101906110a69190613318565b73ffffffffffffffffffffffffffffffffffffffff1660008054906101000a900473ffffffffffffffffffffffffffffffffffffffff1673ffffffffffffffffffffffffffffffffffffffff161461112a576040517faff663a500000000000000000000000000000000000000000000000000000000815260040160405180910390fd5b6000602b60009054906101000a900463ffffffff16905060005b848490508110156111e45761117c85858381811061116557611164612f5b565b5b905060200201356006611c3690919063ffffffff16565b84848281811061118f5761118e612f5b565b5b905060200201358263ffffffff167f529a1f0fdd7142aabe2b12dd8590a30a26c8427b5200ad8c775a5b4aa03fb41d60405160405180910390a381806111d490613345565b9250508080600101915050611144565b5080602b60006101000a81548163ffffffff021916908363ffffffff16021790555084600181905550600061127d60066040518060600160405290816000820160208060200260405190810160405280929190826020801561125b576020028201915b815481526020019060010190808311611247575b5050505050815260200160208201548152602001602182015481525050611b08565b905080602a81905550857f598fdeda3e3b7298359a08c9a438151e3481bdcf3c3ff9906fa71dcc723617b0826040516112b691906127ee565b60405180910390a2505050505050565b6112ce61135a565b600073ffffffffffffffffffffffffffffffffffffffff168173ffffffffffffffffffffffffffffffffffffffff16036113405760006040517f1e4fbdf700000000000000000000000000000000000000000000000000000000815260040161133791906127ba565b60405180910390fd5b61134981611678565b50565b600081805490509050919050565b611362611aa9565b73ffffffffffffffffffffffffffffffffffffffff16611380610852565b73ffffffffffffffffffffffffffffffffffffffff16146113df576113a3611aa9565b6040517f118cdaa70000000000000000000000000000000000000000000000000000000081526004016113d691906127ba565b60405180910390fd5b565b7f000000000000000000000000000000000000000000000000000000000000000073ffffffffffffffffffffffffffffffffffffffff163073ffffffffffffffffffffffffffffffffffffffff16148061148e57507f000000000000000000000000000000000000000000000000000000000000000073ffffffffffffffffffffffffffffffffffffffff16611475611d55565b73ffffffffffffffffffffffffffffffffffffffff1614155b156114c5576040517fe07c8dba00000000000000000000000000000000000000000000000000000000815260040160405180910390fd5b565b6114cf61135a565b50565b8173ffffffffffffffffffffffffffffffffffffffff166352d1902d6040518163ffffffff1660e01b8152600401602060405180830381865afa92505050801561153a57506040513d601f19601f820116820180604052508101906115379190613386565b60015b61157b57816040517f4c9c8ce300000000000000000000000000000000000000000000000000000000815260040161157291906127ba565b60405180910390fd5b7f360894a13ba1a3210667c828492db98dca3e2076cc3735a920a3ca505d382bbc60001b81146115e257806040517faa1d49a40000000000000000000000000000000000000000000000000000000081526004016115d991906127ee565b60405180910390fd5b6115ec8383611dac565b505050565b7f000000000000000000000000000000000000000000000000000000000000000073ffffffffffffffffffffffffffffffffffffffff163073ffffffffffffffffffffffffffffffffffffffff1614611676576040517fe07c8dba00000000000000000000000000000000000000000000000000000000815260040160405180910390fd5b565b6000611682611a59565b905060008160000160009054906101000a900473ffffffffffffffffffffffffffffffffffffffff169050828260000160006101000a81548173ffffffffffffffffffffffffffffffffffffffff021916908373ffffffffffffffffffffffffffffffffffffffff1602179055508273ffffffffffffffffffffffffffffffffffffffff168173ffffffffffffffffffffffffffffffffffffffff167f8be0079c531659141344cd1fd0a4f28419497f9722a3daafe3b4186f6b6457e060405160405180910390a3505050565b600061175b6028611e1f565b905034811115611797576040517f4686819200000000000000000000000000000000000000000000000000000000815260040160405180910390fd5b600081346117a591906133b3565b905060008111156117ff576117b8611aa9565b73ffffffffffffffffffffffffffffffffffffffff166108fc829081150290604051600060405180830381858888f193505050501580156117fd573d6000803e3d6000fd5b505b5050565b6000611810848484611f3f565b905080611849576040517f0f2512a200000000000000000000000000000000000000000000000000000000815260040160405180910390fd5b60008961185757600061185a565b60015b60ff168989898989898960405160200161187b98979695949392919061347f565b604051602081830303815290604052805190602001209050600061189f600261134c565b905060006118ad600261202d565b90506000602a5490506118cc818560026120649092919063ffffffff16565b5060036118d7611aa9565b9080600181540180825580915050600190039060005260206000200160009091909190916101000a81548173ffffffffffffffffffffffffffffffffffffffff021916908373ffffffffffffffffffffffffffffffffffffffff16021790555061193f611aa9565b73ffffffffffffffffffffffffffffffffffffffff16827fe27163b76905dc373b4ad854ddc9403bbac659c5f1c5191c39e5a7c44574040a85848860405161198993929190613542565b60405180910390a3600560009054906101000a900473ffffffffffffffffffffffffffffffffffffffff1673ffffffffffffffffffffffffffffffffffffffff1663f099f9f57f86b9f03d796881acc3ae8b638c23861904ac9c358da18e1d9994e3874f61c12d6119f8611aa9565b60016040518463ffffffff1660e01b8152600401611a18939291906135aa565b600060405180830381600087803b158015611a3257600080fd5b505af1158015611a46573d6000803e3d6000fd5b5050505050505050505050505050505050565b60007f9016d09d72d40fdae2fd8ceac6b6234c7706214fd39c1cd1e609a0528c199300905090565b60007ff0c57e16840df040f15088dc2f81fe391c3923bec73e23a9662efc9c229c6a00905090565b600033905090565b611ab96120b3565b611ac2816120f3565b50565b611acd6120b3565b565b611afd60405180606001604052806000801b8152602001600063ffffffff1681526020016000815250612179565b816021018190555050565b6000808260400151905060008360200151905060008460400151905060005b6020811015611bec576001808285901c1603611b885785600001518160208110611b5457611b53612f5b565b5b602002015184604051602001611b6b9291906135e1565b604051602081830303815290604052805190602001209350611bb4565b8382604051602001611b9b9291906135e1565b6040516020818303038152906040528051906020012093505b8182604051602001611bc79291906135e1565b6040516020818303038152906040528051906020012091508080600101915050611b27565b50829350505050919050565b81611c0c6000801b836000801b60006121b9565b90806001815401808255809150506001900390600052602060002001600090919091909150555050565b6000819050600083602001549050600160206002611c549190613740565b611c5e91906133b3565b8110611c96576040517fef5ccf6600000000000000000000000000000000000000000000000000000000815260040160405180910390fd5b6000600182611ca591906130bd565b905080856020018190555060005b6020811015611d3d576001808284901c1603611cee5783866000018260208110611ce057611cdf612f5b565b5b018190555050505050611d51565b856000018160208110611d0457611d03612f5b565b5b015484604051602001611d189291906135e1565b6040516020818303038152906040528051906020012093508080600101915050611cb3565b506000611d4d57611d4c61378b565b5b5050505b5050565b6000611d837f360894a13ba1a3210667c828492db98dca3e2076cc3735a920a3ca505d382bbc60001b6121f2565b60000160009054906101000a900473ffffffffffffffffffffffffffffffffffffffff16905090565b611db5826121fc565b8173ffffffffffffffffffffffffffffffffffffffff167fbc7cd75a20ee27fd9adebab32041f755214dbc6bffa90cc0225b39da2e5c2d3b60405160405180910390a2600081511115611e1257611e0c82826122c9565b50611e1b565b611e1a61234d565b5b5050565b6000804290506000611e3867d02ab486cedc000061238a565b90506000846000015403611e6357818460000181905550808460010181905550600092505050611f3a565b6000611e766704a03ce68d21555561238a565b90506000611e92866000015485611e8d91906133b3565b612394565b90506000611ec8611ea38484612420565b611ec3611eb9611eb36001612394565b8761244c565b8a60010154612420565b61247a565b9050808760010181905550848760000181905550611ee681856124a8565b15611f30576000611ef7858361244c565b9050611f23611f1e611f18611f1266038d7ea4c6800061238a565b84612420565b83612420565b6124c5565b9650505050505050611f3a565b6000955050505050505b919050565b60008084836040518060400160405280600181526020017f30644e72e131a029b85045b68181585d97816a916871ca8d3c208c16d87cfd4581525086604051602001611f8e949392919061383e565b6040516020818303038152906040529050611fa76126da565b60008083519050602083826020870160086107d05a03fa91508160008103611fcb57fe5b5081612003576040517fdef2011f00000000000000000000000000000000000000000000000000000000815260040160405180910390fd5b60008360006001811061201957612018612f5b565b5b602002015114159450505050509392505050565b6000816001838054905061204191906133b3565b8154811061205257612051612f5b565b5b90600052602060002001549050919050565b60006120826120728561202d565b848461207d8861134c565b6121b9565b9050838190806001815401808255809150506001900390600052602060002001600090919091909150559392505050565b6120bb6124cf565b6120f1576040517fd7e6bcf800000000000000000000000000000000000000000000000000000000815260040160405180910390fd5b565b6120fb6120b3565b600073ffffffffffffffffffffffffffffffffffffffff168173ffffffffffffffffffffffffffffffffffffffff160361216d5760006040517f1e4fbdf700000000000000000000000000000000000000000000000000000000815260040161216491906127ba565b60405180910390fd5b61217681611678565b50565b600081600001518260200151836040015160405160200161219c939291906138ad565b604051602081830303815290604052805190602001209050919050565b6000848484846040516020016121d294939291906138ea565b604051602081830303815290604052805190602001209050949350505050565b6000819050919050565b60008173ffffffffffffffffffffffffffffffffffffffff163b0361225857806040517f4c9c8ce300000000000000000000000000000000000000000000000000000000815260040161224f91906127ba565b60405180910390fd5b806122857f360894a13ba1a3210667c828492db98dca3e2076cc3735a920a3ca505d382bbc60001b6121f2565b60000160006101000a81548173ffffffffffffffffffffffffffffffffffffffff021916908373ffffffffffffffffffffffffffffffffffffffff16021790555050565b60606000808473ffffffffffffffffffffffffffffffffffffffff16846040516122f3919061397f565b600060405180830381855af49150503d806000811461232e576040519150601f19603f3d011682016040523d82523d6000602084013e612333565b606091505b50915091506123438583836124ef565b9250505092915050565b6000341115612388576040517fb398979f00000000000000000000000000000000000000000000000000000000815260040160405180910390fd5b565b6000819050919050565b6000670de0b6b3a76400007fffffffffffffffffffffffffffffffffffffffffffffffffffffffffffffffff6123ca9190613996565b82111561240e57816040517f1cd951a70000000000000000000000000000000000000000000000000000000081526004016124059190612a76565b60405180910390fd5b670de0b6b3a764000082029050919050565b600061244461243f612431856124c5565b61243a856124c5565b61257e565b612668565b905092915050565b600061247261245a836124c5565b612463856124c5565b61246d91906133b3565b612668565b905092915050565b60006124a0612488836124c5565b612491856124c5565b61249b91906130bd565b612668565b905092915050565b60006124b3826124c5565b6124bc846124c5565b10905092915050565b6000819050919050565b60006124d9611a81565b60000160089054906101000a900460ff16905090565b606082612504576124ff82612672565b612576565b6000825114801561252c575060008473ffffffffffffffffffffffffffffffffffffffff163b145b1561256e57836040517f9996b31500000000000000000000000000000000000000000000000000000000815260040161256591906127ba565b60405180910390fd5b819050612577565b5b9392505050565b60008060008019848609848602925082811083820303915050600081036125c157670de0b6b3a764000082816125b7576125b6612ffb565b5b0492505050612662565b670de0b6b3a7640000811061260f5784846040517f5173648d0000000000000000000000000000000000000000000000000000000081526004016126069291906139c7565b60405180910390fd5b6000670de0b6b3a764000085870990507faccb18165bd6fe31ae1cf318dc5b51eee0e1ba569b88cd74c1773b91fac106696001620400008060000304018483118403026204000083860304170293505050505b92915050565b6000819050919050565b6000815111156126855780518082602001fd5b6040517fd6bda27500000000000000000000000000000000000000000000000000000000815260040160405180910390fd5b604051806110000160405280608090602082028036833780820191505090505090565b6040518060200160405280600190602082028036833780820191505090505090565b6000604051905090565b600080fd5b600080fd5b600063ffffffff82169050919050565b61272981612710565b811461273457600080fd5b50565b60008135905061274681612720565b92915050565b60006020828403121561276257612761612706565b5b600061277084828501612737565b91505092915050565b600073ffffffffffffffffffffffffffffffffffffffff82169050919050565b60006127a482612779565b9050919050565b6127b481612799565b82525050565b60006020820190506127cf60008301846127ab565b92915050565b6000819050919050565b6127e8816127d5565b82525050565b600060208201905061280360008301846127df565b92915050565b61281281612799565b811461281d57600080fd5b50565b60008135905061282f81612809565b92915050565b60006020828403121561284b5761284a612706565b5b600061285984828501612820565b91505092915050565b6000819050919050565b61287581612862565b811461288057600080fd5b50565b6000813590506128928161286c565b92915050565b6000602082840312156128ae576128ad612706565b5b60006128bc84828501612883565b91505092915050565b600080fd5b600080fd5b6000601f19601f8301169050919050565b7f4e487b7100000000000000000000000000000000000000000000000000000000600052604160045260246000fd5b612918826128cf565b810181811067ffffffffffffffff82111715612937576129366128e0565b5b80604052505050565b600061294a6126fc565b9050612956828261290f565b919050565b600067ffffffffffffffff821115612976576129756128e0565b5b61297f826128cf565b9050602081019050919050565b82818337600083830152505050565b60006129ae6129a98461295b565b612940565b9050828152602081018484840111156129ca576129c96128ca565b5b6129d584828561298c565b509392505050565b600082601f8301126129f2576129f16128c5565b5b8135612a0284826020860161299b565b91505092915050565b60008060408385031215612a2257612a21612706565b5b6000612a3085828601612820565b925050602083013567ffffffffffffffff811115612a5157612a5061270b565b5b612a5d858286016129dd565b9150509250929050565b612a7081612862565b82525050565b6000602082019050612a8b6000830184612a67565b92915050565b612a9a81612710565b82525050565b6000602082019050612ab56000830184612a91565b92915050565b612ac4816127d5565b8114612acf57600080fd5b50565b600081359050612ae181612abb565b92915050565b60007fffffffffffffffffffffffffffffffff0000000000000000000000000000000082169050919050565b612b1c81612ae7565b8114612b2757600080fd5b50565b600081359050612b3981612b13565b92915050565b600080fd5b600081905082602060020282011115612b6057612b5f612b3f565b5b92915050565b600081905082602060040282011115612b8257612b81612b3f565b5b92915050565b600080fd5b60008083601f840112612ba357612ba26128c5565b5b8235905067ffffffffffffffff811115612bc057612bbf612b88565b5b602083019150836001820283011115612bdc57612bdb612b3f565b5b9250929050565b6000806000806000806000806101c0898b031215612c0457612c03612706565b5b6000612c128b828c01612ad2565b9850506020612c238b828c01612b2a565b9750506040612c348b828c01612b44565b9650506080612c458b828c01612b66565b955050610100612c578b828c01612b66565b945050610180612c698b828c01612ad2565b9350506101a089013567ffffffffffffffff811115612c8b57612c8a61270b565b5b612c978b828c01612b8d565b92509250509295985092959890939650565b600081519050919050565b600082825260208201905092915050565b60005b83811015612ce3578082015181840152602081019050612cc8565b60008484015250505050565b6000612cfa82612ca9565b612d048185612cb4565b9350612d14818560208601612cc5565b612d1d816128cf565b840191505092915050565b60006020820190508181036000830152612d428184612cef565b905092915050565b600080600060608486031215612d6357612d62612706565b5b6000612d7186828701612820565b9350506020612d8286828701612820565b9250506040612d9386828701612820565b9150509250925092565b60008083601f840112612db357612db26128c5565b5b8235905067ffffffffffffffff811115612dd057612dcf612b88565b5b602083019150836020820283011115612dec57612deb612b3f565b5b9250929050565b60008060008060008060006101a0888a031215612e1357612e12612706565b5b6000612e218a828b01612ad2565b9750506020612e328a828b01612b2a565b9650506040612e438a828b01612b44565b9550506080612e548a828b01612b66565b945050610100612e668a828b01612b66565b93505061018088013567ffffffffffffffff811115612e8857612e8761270b565b5b612e948a828b01612d9d565b925092505092959891949750929550565b60008083601f840112612ebb57612eba6128c5565b5b8235905067ffffffffffffffff811115612ed857612ed7612b88565b5b602083019150836020820283011115612ef457612ef3612b3f565b5b9250929050565b600080600060408486031215612f1457612f13612706565b5b6000612f2286828701612883565b935050602084013567ffffffffffffffff811115612f4357612f4261270b565b5b612f4f86828701612ea5565b92509250509250925092565b7f4e487b7100000000000000000000000000000000000000000000000000000000600052603260045260246000fd5b7f4e487b7100000000000000000000000000000000000000000000000000000000600052601160045260246000fd5b6000612fc482612862565b9150612fcf83612862565b9250828202612fdd81612862565b91508282048414831517612ff457612ff3612f8a565b5b5092915050565b7f4e487b7100000000000000000000000000000000000000000000000000000000600052601260045260246000fd5b600061303582612862565b915061304083612862565b9250826130505761304f612ffb565b5b828206905092915050565b600082825260208201905092915050565b6000613078838561305b565b935061308583858461298c565b61308e836128cf565b840190509392505050565b600060208201905081810360008301526130b481848661306c565b90509392505050565b60006130c882612862565b91506130d383612862565b92508282019050808211156130eb576130ea612f8a565b5b92915050565b6000819050919050565b600067ffffffffffffffff82169050919050565b6000819050919050565b600061313461312f61312a846130f1565b61310f565b6130fb565b9050919050565b61314481613119565b82525050565b600060208201905061315f600083018461313b565b92915050565b600061317082612710565b915061317b83612710565b9250828203905063ffffffff81111561319757613196612f8a565b5b92915050565b600082825260208201905092915050565b600080fd5b82818337505050565b60006131c8838561319d565b93507f07ffffffffffffffffffffffffffffffffffffffffffffffffffffffffffffff8311156131fb576131fa6131ae565b5b60208302925061320c8385846131b3565b82840190509392505050565b600060208201905081810360008301526132338184866131bc565b90509392505050565b600060809050919050565b600081905092915050565b6000819050919050565b61326581612862565b82525050565b6000613277838361325c565b60208301905092915050565b6000602082019050919050565b6132998161323c565b6132a38184613247565b92506132ae82613252565b8060005b838110156132df5781516132c6878261326b565b96506132d183613283565b9250506001810190506132b2565b505050505050565b60006132f38284613290565b6110008201915081905092915050565b60008151905061331281612809565b92915050565b60006020828403121561332e5761332d612706565b5b600061333c84828501613303565b91505092915050565b600061335082612710565b915063ffffffff820361336657613365612f8a565b5b600182019050919050565b60008151905061338081612abb565b92915050565b60006020828403121561339c5761339b612706565b5b60006133aa84828501613371565b91505092915050565b60006133be82612862565b91506133c983612862565b92508282039050818111156133e1576133e0612f8a565b5b92915050565b60008160e01b9050919050565b60006133ff826133e7565b9050919050565b61341761341282612710565b6133f4565b82525050565b6000819050919050565b613438613433826127d5565b61341d565b82525050565b6000819050919050565b61345961345482612ae7565b61343e565b82525050565b61346b604083836131b3565b5050565b61347b608083836131b3565b5050565b600061348b828b613406565b60048201915061349b828a613427565b6020820191506134ab8289613448565b6010820191506134bb8288613427565b6020820191506134cb8287613427565b6020820191506134db828661345f565b6040820191506134eb828561346f565b6080820191506134fb828461346f565b6080820191508190509998505050505050505050565b600061352c61352761352284612710565b61310f565b612862565b9050919050565b61353c81613511565b82525050565b60006060820190506135576000830186613533565b61356460208301856127df565b61357160408301846127df565b949350505050565b600061359461358f61358a846130f1565b61310f565b612862565b9050919050565b6135a481613579565b82525050565b60006060820190506135bf60008301866127df565b6135cc60208301856127ab565b6135d9604083018461359b565b949350505050565b60006135ed8285613427565b6020820191506135fd8284613427565b6020820191508190509392505050565b60008160011c9050919050565b6000808291508390505b6001851115613664578086048111156136405761363f612f8a565b5b600185161561364f5780820291505b808102905061365d8561360d565b9450613624565b94509492505050565b60008261367d5760019050613739565b8161368b5760009050613739565b81600181146136a157600281146136ab576136da565b6001915050613739565b60ff8411156136bd576136bc612f8a565b5b8360020a9150848211156136d4576136d3612f8a565b5b50613739565b5060208310610133831016604e8410600b841016171561370f5782820a90508381111561370a57613709612f8a565b5b613739565b61371c848484600161361a565b9250905081840481111561373357613732612f8a565b5b81810290505b9392505050565b600061374b82612862565b915061375683612862565b92506137837fffffffffffffffffffffffffffffffffffffffffffffffffffffffffffffffff848461366d565b905092915050565b7f4e487b7100000000000000000000000000000000000000000000000000000000600052600160045260246000fd5b600060029050919050565b600081905092915050565b6000819050919050565b6000602082019050919050565b6137f0816137ba565b6137fa81846137c5565b9250613805826137d0565b8060005b8381101561383657815161381d878261326b565b9650613828836137da565b925050600181019050613809565b505050505050565b600061384a828761345f565b60408201915061385a828661346f565b60808201915061386a82856137e7565b60408201915061387a828461346f565b60808201915081905095945050505050565b6000819050919050565b6138a76138a282612862565b61388c565b82525050565b60006138b98286613427565b6020820191506138c98285613406565b6004820191506138d98284613896565b602082019150819050949350505050565b60006138f68287613427565b6020820191506139068286613427565b6020820191506139168285613427565b6020820191506139268284613406565b60048201915081905095945050505050565b600081519050919050565b600081905092915050565b600061395982613938565b6139638185613943565b9350613973818560208601612cc5565b80840191505092915050565b600061398b828461394e565b915081905092915050565b60006139a182612862565b91506139ac83612862565b9250826139bc576139bb612ffb565b5b828204905092915050565b60006040820190506139dc6000830185612a67565b6139e96020830184612a67565b939250505056fea264697066735822122004eca1e1f59c24aaa889b8613ddbfd2e8a6e2f85ab75a70c95a34748fcf83ea064736f6c634300081b0033",
  "linkReferences": {},
  "deployedLinkReferences": {}
}