{
  "_format": "hh-sol-artifact-1",
  "contractName": "Rollup",
  "sourceName": "contracts/rollup/Rollup.sol",
  "abi": [
    {
      "inputs": [],
      "stateMutability": "nonpayable",
      "type": "constructor"
    },
    {
      "inputs": [
        {
          "internalType": "address",
          "name": "target",
          "type": "address"
        }
      ],
      "name": "AddressEmptyCode",
      "type": "error"
    },
    {
      "inputs": [],
      "name": "AddressZero",
      "type": "error"
    },
    {
      "inputs": [],
      "name": "BlockNumberOutOfRange",
      "type": "error"
    },
    {
      "inputs": [
        {
          "internalType": "address",
          "name": "implementation",
          "type": "address"
        }
      ],
      "name": "ERC1967InvalidImplementation",
      "type": "error"
    },
    {
      "inputs": [],
      "name": "ERC1967NonPayable",
      "type": "error"
    },
    {
      "inputs": [],
      "name": "FailedCall",
      "type": "error"
    },
    {
      "inputs": [],
      "name": "InsufficientPenaltyFee",
      "type": "error"
    },
    {
      "inputs": [],
      "name": "InvalidInitialization",
      "type": "error"
    },
    {
      "inputs": [],
      "name": "MerkleTreeFull",
      "type": "error"
    },
    {
      "inputs": [],
      "name": "NotInitializing",
      "type": "error"
    },
    {
      "inputs": [],
      "name": "OnlyLiquidity",
      "type": "error"
    },
    {
      "inputs": [],
      "name": "OnlyScrollMessenger",
      "type": "error"
    },
    {
      "inputs": [
        {
          "internalType": "address",
          "name": "owner",
          "type": "address"
        }
      ],
      "name": "OwnableInvalidOwner",
      "type": "error"
    },
    {
      "inputs": [
        {
          "internalType": "address",
          "name": "account",
          "type": "address"
        }
      ],
      "name": "OwnableUnauthorizedAccount",
      "type": "error"
    },
    {
      "inputs": [
        {
          "internalType": "uint256",
          "name": "x",
          "type": "uint256"
        },
        {
          "internalType": "uint256",
          "name": "y",
          "type": "uint256"
        }
      ],
      "name": "PRBMath_MulDiv18_Overflow",
      "type": "error"
    },
    {
      "inputs": [
        {
          "internalType": "uint256",
          "name": "x",
          "type": "uint256"
        }
      ],
      "name": "PRBMath_UD60x18_Convert_Overflow",
      "type": "error"
    },
    {
      "inputs": [],
      "name": "PairingCheckFailed",
      "type": "error"
    },
    {
      "inputs": [],
      "name": "PairingOpCodeFailed",
      "type": "error"
    },
    {
      "inputs": [],
      "name": "SenderAccountIdsInvalidLength",
      "type": "error"
    },
    {
      "inputs": [],
      "name": "TooManyAccountIds",
      "type": "error"
    },
    {
      "inputs": [],
      "name": "TooManySenderPublicKeys",
      "type": "error"
    },
    {
      "inputs": [],
      "name": "UUPSUnauthorizedCallContext",
      "type": "error"
    },
    {
      "inputs": [
        {
          "internalType": "bytes32",
          "name": "slot",
          "type": "bytes32"
        }
      ],
      "name": "UUPSUnsupportedProxiableUUID",
      "type": "error"
    },
    {
      "anonymous": false,
      "inputs": [
        {
          "indexed": true,
          "internalType": "bytes32",
          "name": "prevBlockHash",
          "type": "bytes32"
        },
        {
          "indexed": true,
          "internalType": "address",
          "name": "blockBuilder",
          "type": "address"
        },
        {
          "indexed": false,
          "internalType": "uint256",
          "name": "blockNumber",
          "type": "uint256"
        },
        {
          "indexed": false,
          "internalType": "bytes32",
          "name": "depositTreeRoot",
          "type": "bytes32"
        },
        {
          "indexed": false,
          "internalType": "bytes32",
          "name": "signatureHash",
          "type": "bytes32"
        }
      ],
      "name": "BlockPosted",
      "type": "event"
    },
    {
      "anonymous": false,
      "inputs": [
        {
          "indexed": true,
          "internalType": "uint32",
          "name": "depositIndex",
          "type": "uint32"
        },
        {
          "indexed": true,
          "internalType": "bytes32",
          "name": "depositHash",
          "type": "bytes32"
        }
      ],
      "name": "DepositLeafInserted",
      "type": "event"
    },
    {
      "anonymous": false,
      "inputs": [
        {
          "indexed": true,
          "internalType": "uint256",
          "name": "lastProcessedDepositId",
          "type": "uint256"
        },
        {
          "indexed": false,
          "internalType": "bytes32",
          "name": "depositTreeRoot",
          "type": "bytes32"
        }
      ],
      "name": "DepositsProcessed",
      "type": "event"
    },
    {
      "anonymous": false,
      "inputs": [
        {
          "indexed": false,
          "internalType": "uint64",
          "name": "version",
          "type": "uint64"
        }
      ],
      "name": "Initialized",
      "type": "event"
    },
    {
      "anonymous": false,
      "inputs": [
        {
          "indexed": true,
          "internalType": "address",
          "name": "previousOwner",
          "type": "address"
        },
        {
          "indexed": true,
          "internalType": "address",
          "name": "newOwner",
          "type": "address"
        }
      ],
      "name": "OwnershipTransferred",
      "type": "event"
    },
    {
      "anonymous": false,
      "inputs": [
        {
          "indexed": true,
          "internalType": "address",
          "name": "implementation",
          "type": "address"
        }
      ],
      "name": "Upgraded",
      "type": "event"
    },
    {
      "inputs": [],
      "name": "UPGRADE_INTERFACE_VERSION",
      "outputs": [
        {
          "internalType": "string",
          "name": "",
          "type": "string"
        }
      ],
      "stateMutability": "view",
      "type": "function"
    },
    {
      "inputs": [
        {
          "internalType": "uint256",
          "name": "",
          "type": "uint256"
        }
      ],
      "name": "blockBuilders",
      "outputs": [
        {
          "internalType": "address",
          "name": "",
          "type": "address"
        }
      ],
      "stateMutability": "view",
      "type": "function"
    },
    {
      "inputs": [
        {
          "internalType": "uint256",
          "name": "",
          "type": "uint256"
        }
      ],
      "name": "blockHashes",
      "outputs": [
        {
          "internalType": "bytes32",
          "name": "",
          "type": "bytes32"
        }
      ],
      "stateMutability": "view",
      "type": "function"
    },
    {
      "inputs": [],
      "name": "depositIndex",
      "outputs": [
        {
          "internalType": "uint32",
          "name": "",
          "type": "uint32"
        }
      ],
      "stateMutability": "view",
      "type": "function"
    },
    {
      "inputs": [],
      "name": "depositTreeRoot",
      "outputs": [
        {
          "internalType": "bytes32",
          "name": "",
          "type": "bytes32"
        }
      ],
      "stateMutability": "view",
      "type": "function"
    },
    {
      "inputs": [
        {
          "internalType": "uint32",
          "name": "blockNumber",
          "type": "uint32"
        }
      ],
      "name": "getBlockBuilder",
      "outputs": [
        {
          "internalType": "address",
          "name": "",
          "type": "address"
        }
      ],
      "stateMutability": "view",
      "type": "function"
    },
    {
      "inputs": [
        {
          "internalType": "uint32",
          "name": "blockNumber",
          "type": "uint32"
        }
      ],
      "name": "getBlockHash",
      "outputs": [
        {
          "internalType": "bytes32",
          "name": "",
          "type": "bytes32"
        }
      ],
      "stateMutability": "view",
      "type": "function"
    },
    {
      "inputs": [],
      "name": "getLatestBlockNumber",
      "outputs": [
        {
          "internalType": "uint32",
          "name": "",
          "type": "uint32"
        }
      ],
      "stateMutability": "view",
      "type": "function"
    },
    {
      "inputs": [
        {
          "internalType": "address",
          "name": "_admin",
          "type": "address"
        },
        {
          "internalType": "address",
          "name": "_scrollMessenger",
          "type": "address"
        },
        {
          "internalType": "address",
          "name": "_liquidity",
          "type": "address"
        },
        {
          "internalType": "address",
          "name": "_contribution",
          "type": "address"
        }
      ],
      "name": "initialize",
      "outputs": [],
      "stateMutability": "nonpayable",
      "type": "function"
    },
    {
      "inputs": [],
      "name": "lastProcessedDepositId",
      "outputs": [
        {
          "internalType": "uint256",
          "name": "",
          "type": "uint256"
        }
      ],
      "stateMutability": "view",
      "type": "function"
    },
    {
      "inputs": [],
      "name": "owner",
      "outputs": [
        {
          "internalType": "address",
          "name": "",
          "type": "address"
        }
      ],
      "stateMutability": "view",
      "type": "function"
    },
    {
      "inputs": [
        {
          "internalType": "bytes32",
          "name": "txTreeRoot",
          "type": "bytes32"
        },
        {
          "internalType": "bytes16",
          "name": "senderFlags",
          "type": "bytes16"
        },
        {
          "internalType": "bytes32[2]",
          "name": "aggregatedPublicKey",
          "type": "bytes32[2]"
        },
        {
          "internalType": "bytes32[4]",
          "name": "aggregatedSignature",
          "type": "bytes32[4]"
        },
        {
          "internalType": "bytes32[4]",
          "name": "messagePoint",
          "type": "bytes32[4]"
        },
        {
          "internalType": "bytes32",
          "name": "publicKeysHash",
          "type": "bytes32"
        },
        {
          "internalType": "bytes",
          "name": "senderAccountIds",
          "type": "bytes"
        }
      ],
      "name": "postNonRegistrationBlock",
      "outputs": [],
      "stateMutability": "payable",
      "type": "function"
    },
    {
      "inputs": [
        {
          "internalType": "bytes32",
          "name": "txTreeRoot",
          "type": "bytes32"
        },
        {
          "internalType": "bytes16",
          "name": "senderFlags",
          "type": "bytes16"
        },
        {
          "internalType": "bytes32[2]",
          "name": "aggregatedPublicKey",
          "type": "bytes32[2]"
        },
        {
          "internalType": "bytes32[4]",
          "name": "aggregatedSignature",
          "type": "bytes32[4]"
        },
        {
          "internalType": "bytes32[4]",
          "name": "messagePoint",
          "type": "bytes32[4]"
        },
        {
          "internalType": "uint256[]",
          "name": "senderPublicKeys",
          "type": "uint256[]"
        }
      ],
      "name": "postRegistrationBlock",
      "outputs": [],
      "stateMutability": "payable",
      "type": "function"
    },
    {
      "inputs": [
        {
          "internalType": "uint256",
          "name": "_lastProcessedDepositId",
          "type": "uint256"
        },
        {
          "internalType": "bytes32[]",
          "name": "depositHashes",
          "type": "bytes32[]"
        }
      ],
      "name": "processDeposits",
      "outputs": [],
      "stateMutability": "nonpayable",
      "type": "function"
    },
    {
      "inputs": [],
      "name": "proxiableUUID",
      "outputs": [
        {
          "internalType": "bytes32",
          "name": "",
          "type": "bytes32"
        }
      ],
      "stateMutability": "view",
      "type": "function"
    },
    {
      "inputs": [],
      "name": "renounceOwnership",
      "outputs": [],
      "stateMutability": "nonpayable",
      "type": "function"
    },
    {
      "inputs": [
        {
          "internalType": "address",
          "name": "newOwner",
          "type": "address"
        }
      ],
      "name": "transferOwnership",
      "outputs": [],
      "stateMutability": "nonpayable",
      "type": "function"
    },
    {
      "inputs": [
        {
          "internalType": "address",
          "name": "newImplementation",
          "type": "address"
        },
        {
          "internalType": "bytes",
          "name": "data",
          "type": "bytes"
        }
      ],
      "name": "upgradeToAndCall",
      "outputs": [],
      "stateMutability": "payable",
      "type": "function"
    },
    {
      "inputs": [
        {
          "internalType": "address",
          "name": "to",
          "type": "address"
        }
      ],
      "name": "withdrawPenaltyFee",
      "outputs": [],
      "stateMutability": "nonpayable",
      "type": "function"
    }
  ],
  "bytecode": "0x60a06040523073ffffffffffffffffffffffffffffffffffffffff1660809073ffffffffffffffffffffffffffffffffffffffff1681525034801561004357600080fd5b5061005261005760201b60201c565b6101c1565b600061006761015b60201b60201c565b90508060000160089054906101000a900460ff16156100b2576040517ff92ee8a900000000000000000000000000000000000000000000000000000000815260040160405180910390fd5b67ffffffffffffffff80168160000160009054906101000a900467ffffffffffffffff1667ffffffffffffffff16146101585767ffffffffffffffff8160000160006101000a81548167ffffffffffffffff021916908367ffffffffffffffff1602179055507fc7f505b2f371ae2175ee4913f4499e1f2633a7b5936321eed1cdaeb6115181d267ffffffffffffffff60405161014f91906101a6565b60405180910390a15b50565b60007ff0c57e16840df040f15088dc2f81fe391c3923bec73e23a9662efc9c229c6a00905090565b600067ffffffffffffffff82169050919050565b6101a081610183565b82525050565b60006020820190506101bb6000830184610197565b92915050565b6080516135a36101ea60003960008181611086015281816110db015261129601526135a36000f3fe6080604052600436106101145760003560e01c8063842f1bfc116100a0578063c7bffeeb11610064578063c7bffeeb14610375578063d2b210a114610391578063f03efa37146103ce578063f2fde38b146103f7578063f8c8765e1461042057610114565b8063842f1bfc1461029b5780638da5cb5b146102b7578063ad3cb1cc146102e2578063b568a0551461030d578063c76c38841461034a57610114565b80634f1ef286116100e75780634f1ef286146101e757806352d1902d14610203578063567419c11461022e578063715018a6146102595780637b8989391461027057610114565b806306f743c0146101195780631d9a07b91461015657806325d89cfd1461018157806334cdf78d146101aa575b600080fd5b34801561012557600080fd5b50610140600480360381019061013b91906123ef565b610449565b60405161014d919061245d565b60405180910390f35b34801561016257600080fd5b5061016b6104e5565b6040516101789190612491565b60405180910390f35b34801561018d57600080fd5b506101a860048036038101906101a391906124d8565b6104eb565b005b3480156101b657600080fd5b506101d160048036038101906101cc919061253b565b61053d565b6040516101de9190612491565b60405180910390f35b61020160048036038101906101fc91906126ae565b610561565b005b34801561020f57600080fd5b50610218610580565b6040516102259190612491565b60405180910390f35b34801561023a57600080fd5b506102436105b3565b6040516102509190612719565b60405180910390f35b34801561026557600080fd5b5061026e6105b9565b005b34801561027c57600080fd5b506102856105cd565b6040516102929190612743565b60405180910390f35b6102b560048036038101906102b09190612886565b6105e3565b005b3480156102c357600080fd5b506102cc610803565b6040516102d9919061245d565b60405180910390f35b3480156102ee57600080fd5b506102f761083b565b60405161030491906129cb565b60405180910390f35b34801561031957600080fd5b50610334600480360381019061032f919061253b565b610874565b604051610341919061245d565b60405180910390f35b34801561035657600080fd5b5061035f6108b3565b60405161036c9190612743565b60405180910390f35b61038f600480360381019061038a9190612a43565b6108d0565b005b34801561039d57600080fd5b506103b860048036038101906103b391906123ef565b6109fe565b6040516103c59190612491565b60405180910390f35b3480156103da57600080fd5b506103f560048036038101906103f09190612b4b565b610a7a565b005b34801561040357600080fd5b5061041e600480360381019061041991906124d8565b610c15565b005b34801561042c57600080fd5b5061044760048036038101906104429190612bab565b610c9b565b005b60006104556002610fef565b63ffffffff168263ffffffff1610610499576040517f98f1199600000000000000000000000000000000000000000000000000000000815260040160405180910390fd5b60038263ffffffff16815481106104b3576104b2612c12565b5b9060005260206000200160009054906101000a900473ffffffffffffffffffffffffffffffffffffffff169050919050565b602a5481565b6104f3610ffd565b8073ffffffffffffffffffffffffffffffffffffffff166108fc479081150290604051600060405180830381858888f19350505050158015610539573d6000803e3d6000fd5b5050565b6002818154811061054d57600080fd5b906000526020600020016000915090505481565b610569611084565b6105728261116a565b61057c8282611175565b5050565b600061058a611294565b7f360894a13ba1a3210667c828492db98dca3e2076cc3735a920a3ca505d382bbc60001b905090565b60015481565b6105c1610ffd565b6105cb600061131b565b565b602b60009054906101000a900463ffffffff1681565b6105eb6113f2565b6000828290509050600560806106019190612c70565b81111561063a576040517f6771216a00000000000000000000000000000000000000000000000000000000815260040160405180910390fd5b60006005826106499190612ce1565b14610680576040517f41adec0d00000000000000000000000000000000000000000000000000000000815260040160405180910390fd5b6000600560806106909190612c70565b67ffffffffffffffff8111156106a9576106a8612583565b5b6040519080825280601f01601f1916602001820160405280156106db5781602001600182028036833780820191505090505b50905060005b82811015610755578484828181106106fc576106fb612c12565b5b9050013560f81c60f81b82828151811061071957610718612c12565b5b60200101907effffffffffffffffffffffffffffffffffffffffffffffffffffffffffffff1916908160001a90535080806001019150506106e1565b5060008290505b6005608061076a9190612c70565b8110156107d857600160f81b826004836107849190612d12565b8151811061079557610794612c12565b5b60200101907effffffffffffffffffffffffffffffffffffffffffffffffffffffffffffff1916908160001a9053506005816107d19190612d12565b905061075c565b506000818051906020012090506107f660008c8c89858e8e8e6114a6565b5050505050505050505050565b60008061080e6116fc565b90508060000160009054906101000a900473ffffffffffffffffffffffffffffffffffffffff1691505090565b6040518060400160405280600581526020017f352e302e3000000000000000000000000000000000000000000000000000000081525081565b6003818154811061088457600080fd5b906000526020600020016000915054906101000a900473ffffffffffffffffffffffffffffffffffffffff1681565b600060016108c16002610fef565b6108cb9190612d46565b905090565b6108d86113f2565b6000828290509050608081111561091b576040517f07b556c900000000000000000000000000000000000000000000000000000000815260040160405180910390fd5b61092361235a565b60005b828110156109715784848281811061094157610940612c12565b5b9050602002013582826080811061095b5761095a612c12565b5b6020020181815250508080600101915050610926565b5060008290505b60808110156109ac57600182826080811061099657610995612c12565b5b6020020181815250508080600101915050610978565b506000816040516020016109c09190612e29565b60405160208183030381529060405280519060200120905060008060001b90506109f160018c8c85858e8e8e6114a6565b5050505050505050505050565b6000610a0a6002610fef565b63ffffffff168263ffffffff1610610a4e576040517f98f1199600000000000000000000000000000000000000000000000000000000815260040160405180910390fd5b60028263ffffffff1681548110610a6857610a67612c12565b5b90600052602060002001549050919050565b6000602b60009054906101000a900463ffffffff16905060005b83839050811015610b3457610acc848483818110610ab557610ab4612c12565b5b90506020020135600661172490919063ffffffff16565b838382818110610adf57610ade612c12565b5b905060200201358263ffffffff167f529a1f0fdd7142aabe2b12dd8590a30a26c8427b5200ad8c775a5b4aa03fb41d60405160405180910390a38180610b2490612e45565b9250508080600101915050610a94565b5080602b60006101000a81548163ffffffff021916908363ffffffff160217905550836001819055506000610bcd600660405180606001604052908160008201602080602002604051908101604052809291908260208015610bab576020028201915b815481526020019060010190808311610b97575b5050505050815260200160208201548152602001602182015481525050611843565b905080602a81905550847f598fdeda3e3b7298359a08c9a438151e3481bdcf3c3ff9906fa71dcc723617b082604051610c069190612491565b60405180910390a25050505050565b610c1d610ffd565b600073ffffffffffffffffffffffffffffffffffffffff168173ffffffffffffffffffffffffffffffffffffffff1603610c8f5760006040517f1e4fbdf7000000000000000000000000000000000000000000000000000000008152600401610c86919061245d565b60405180910390fd5b610c988161131b565b50565b6000610ca5611933565b905060008160000160089054906101000a900460ff1615905060008260000160009054906101000a900467ffffffffffffffff1690506000808267ffffffffffffffff16148015610cf35750825b9050600060018367ffffffffffffffff16148015610d28575060003073ffffffffffffffffffffffffffffffffffffffff163b145b905081158015610d36575080155b15610d6d576040517ff92ee8a900000000000000000000000000000000000000000000000000000000815260040160405180910390fd5b60018560000160006101000a81548167ffffffffffffffff021916908367ffffffffffffffff1602179055508315610dbd5760018560000160086101000a81548160ff0219169083151502179055505b610dc68961195b565b610dce61196f565b610dd86006611979565b87600460006101000a81548173ffffffffffffffffffffffffffffffffffffffff021916908373ffffffffffffffffffffffffffffffffffffffff160217905550866000806101000a81548173ffffffffffffffffffffffffffffffffffffffff021916908373ffffffffffffffffffffffffffffffffffffffff16021790555085600560006101000a81548173ffffffffffffffffffffffffffffffffffffffff021916908373ffffffffffffffffffffffffffffffffffffffff160217905550610f08600660405180606001604052908160008201602080602002604051908101604052809291908260208015610ee6576020028201915b815481526020019060010190808311610ed2575b5050505050815260200160208201548152602001602182015481525050611843565b602a81905550610f24602a5460026119b290919063ffffffff16565b600360009080600181540180825580915050600190039060005260206000200160009091909190916101000a81548173ffffffffffffffffffffffffffffffffffffffff021916908373ffffffffffffffffffffffffffffffffffffffff1602179055508315610fe45760008560000160086101000a81548160ff0219169083151502179055507fc7f505b2f371ae2175ee4913f4499e1f2633a7b5936321eed1cdaeb6115181d26001604051610fdb9190612eca565b60405180910390a15b505050505050505050565b600081805490509050919050565b6110056119f0565b73ffffffffffffffffffffffffffffffffffffffff16611023610803565b73ffffffffffffffffffffffffffffffffffffffff1614611082576110466119f0565b6040517f118cdaa7000000000000000000000000000000000000000000000000000000008152600401611079919061245d565b60405180910390fd5b565b7f000000000000000000000000000000000000000000000000000000000000000073ffffffffffffffffffffffffffffffffffffffff163073ffffffffffffffffffffffffffffffffffffffff16148061113157507f000000000000000000000000000000000000000000000000000000000000000073ffffffffffffffffffffffffffffffffffffffff166111186119f8565b73ffffffffffffffffffffffffffffffffffffffff1614155b15611168576040517fe07c8dba00000000000000000000000000000000000000000000000000000000815260040160405180910390fd5b565b611172610ffd565b50565b8173ffffffffffffffffffffffffffffffffffffffff166352d1902d6040518163ffffffff1660e01b8152600401602060405180830381865afa9250505080156111dd57506040513d601f19601f820116820180604052508101906111da9190612efa565b60015b61121e57816040517f4c9c8ce3000000000000000000000000000000000000000000000000000000008152600401611215919061245d565b60405180910390fd5b7f360894a13ba1a3210667c828492db98dca3e2076cc3735a920a3ca505d382bbc60001b811461128557806040517faa1d49a400000000000000000000000000000000000000000000000000000000815260040161127c9190612491565b60405180910390fd5b61128f8383611a4f565b505050565b7f000000000000000000000000000000000000000000000000000000000000000073ffffffffffffffffffffffffffffffffffffffff163073ffffffffffffffffffffffffffffffffffffffff1614611319576040517fe07c8dba00000000000000000000000000000000000000000000000000000000815260040160405180910390fd5b565b60006113256116fc565b905060008160000160009054906101000a900473ffffffffffffffffffffffffffffffffffffffff169050828260000160006101000a81548173ffffffffffffffffffffffffffffffffffffffff021916908373ffffffffffffffffffffffffffffffffffffffff1602179055508273ffffffffffffffffffffffffffffffffffffffff168173ffffffffffffffffffffffffffffffffffffffff167f8be0079c531659141344cd1fd0a4f28419497f9722a3daafe3b4186f6b6457e060405160405180910390a3505050565b60006113fe6028611ac2565b90503481111561143a576040517f4686819200000000000000000000000000000000000000000000000000000000815260040160405180910390fd5b600081346114489190612f27565b905060008111156114a25761145b6119f0565b73ffffffffffffffffffffffffffffffffffffffff166108fc829081150290604051600060405180830381858888f193505050501580156114a0573d6000803e3d6000fd5b505b5050565b60006114b3848484611be2565b9050806114ec576040517f0f2512a200000000000000000000000000000000000000000000000000000000815260040160405180910390fd5b6000896114fa5760006114fd565b60015b60ff168989898989898960405160200161151e989796959493929190612ffc565b60405160208183030381529060405280519060200120905060006115426002610fef565b905060006115506002611cd0565b90506000602a54905061156f81856002611d079092919063ffffffff16565b50600361157a6119f0565b9080600181540180825580915050600190039060005260206000200160009091909190916101000a81548173ffffffffffffffffffffffffffffffffffffffff021916908373ffffffffffffffffffffffffffffffffffffffff1602179055506115e26119f0565b73ffffffffffffffffffffffffffffffffffffffff16827fe27163b76905dc373b4ad854ddc9403bbac659c5f1c5191c39e5a7c44574040a85848860405161162c939291906130bf565b60405180910390a3600560009054906101000a900473ffffffffffffffffffffffffffffffffffffffff1673ffffffffffffffffffffffffffffffffffffffff1663f099f9f57f86b9f03d796881acc3ae8b638c23861904ac9c358da18e1d9994e3874f61c12d61169b6119f0565b60016040518463ffffffff1660e01b81526004016116bb93929190613127565b600060405180830381600087803b1580156116d557600080fd5b505af11580156116e9573d6000803e3d6000fd5b5050505050505050505050505050505050565b60007f9016d09d72d40fdae2fd8ceac6b6234c7706214fd39c1cd1e609a0528c199300905090565b60008190506000836020015490506001602060026117429190613291565b61174c9190612f27565b8110611784576040517fef5ccf6600000000000000000000000000000000000000000000000000000000815260040160405180910390fd5b60006001826117939190612d12565b905080856020018190555060005b602081101561182b576001808284901c16036117dc57838660000182602081106117ce576117cd612c12565b5b01819055505050505061183f565b8560000181602081106117f2576117f1612c12565b5b0154846040516020016118069291906132dc565b60405160208183030381529060405280519060200120935080806001019150506117a1565b50600061183b5761183a613308565b5b5050505b5050565b6000808260400151905060008360200151905060008460400151905060005b6020811015611927576001808285901c16036118c3578560000151816020811061188f5761188e612c12565b5b6020020151846040516020016118a69291906132dc565b6040516020818303038152906040528051906020012093506118ef565b83826040516020016118d69291906132dc565b6040516020818303038152906040528051906020012093505b81826040516020016119029291906132dc565b6040516020818303038152906040528051906020012091508080600101915050611862565b50829350505050919050565b60007ff0c57e16840df040f15088dc2f81fe391c3923bec73e23a9662efc9c229c6a00905090565b611963611d56565b61196c81611d96565b50565b611977611d56565b565b6119a760405180606001604052806000801b8152602001600063ffffffff1681526020016000815250611e1c565b816021018190555050565b816119c66000801b836000801b6000611e5c565b90806001815401808255809150506001900390600052602060002001600090919091909150555050565b600033905090565b6000611a267f360894a13ba1a3210667c828492db98dca3e2076cc3735a920a3ca505d382bbc60001b611e95565b60000160009054906101000a900473ffffffffffffffffffffffffffffffffffffffff16905090565b611a5882611e9f565b8173ffffffffffffffffffffffffffffffffffffffff167fbc7cd75a20ee27fd9adebab32041f755214dbc6bffa90cc0225b39da2e5c2d3b60405160405180910390a2600081511115611ab557611aaf8282611f6c565b50611abe565b611abd611ff0565b5b5050565b6000804290506000611adb67d02ab486cedc000061202d565b90506000846000015403611b0657818460000181905550808460010181905550600092505050611bdd565b6000611b196704a03ce68d21555561202d565b90506000611b35866000015485611b309190612f27565b612037565b90506000611b6b611b4684846120c3565b611b66611b5c611b566001612037565b876120ef565b8a600101546120c3565b61211d565b9050808760010181905550848760000181905550611b89818561214b565b15611bd3576000611b9a85836120ef565b9050611bc6611bc1611bbb611bb566038d7ea4c6800061202d565b846120c3565b836120c3565b612168565b9650505050505050611bdd565b6000955050505050505b919050565b60008084836040518060400160405280600181526020017f30644e72e131a029b85045b68181585d97816a916871ca8d3c208c16d87cfd4581525086604051602001611c3194939291906133bb565b6040516020818303038152906040529050611c4a61237d565b60008083519050602083826020870160086107d05a03fa91508160008103611c6e57fe5b5081611ca6576040517fdef2011f00000000000000000000000000000000000000000000000000000000815260040160405180910390fd5b600083600060018110611cbc57611cbb612c12565b5b602002015114159450505050509392505050565b60008160018380549050611ce49190612f27565b81548110611cf557611cf4612c12565b5b90600052602060002001549050919050565b6000611d25611d1585611cd0565b8484611d2088610fef565b611e5c565b9050838190806001815401808255809150506001900390600052602060002001600090919091909150559392505050565b611d5e612172565b611d94576040517fd7e6bcf800000000000000000000000000000000000000000000000000000000815260040160405180910390fd5b565b611d9e611d56565b600073ffffffffffffffffffffffffffffffffffffffff168173ffffffffffffffffffffffffffffffffffffffff1603611e105760006040517f1e4fbdf7000000000000000000000000000000000000000000000000000000008152600401611e07919061245d565b60405180910390fd5b611e198161131b565b50565b6000816000015182602001518360400151604051602001611e3f9392919061342a565b604051602081830303815290604052805190602001209050919050565b600084848484604051602001611e759493929190613467565b604051602081830303815290604052805190602001209050949350505050565b6000819050919050565b60008173ffffffffffffffffffffffffffffffffffffffff163b03611efb57806040517f4c9c8ce3000000000000000000000000000000000000000000000000000000008152600401611ef2919061245d565b60405180910390fd5b80611f287f360894a13ba1a3210667c828492db98dca3e2076cc3735a920a3ca505d382bbc60001b611e95565b60000160006101000a81548173ffffffffffffffffffffffffffffffffffffffff021916908373ffffffffffffffffffffffffffffffffffffffff16021790555050565b60606000808473ffffffffffffffffffffffffffffffffffffffff1684604051611f9691906134fc565b600060405180830381855af49150503d8060008114611fd1576040519150601f19603f3d011682016040523d82523d6000602084013e611fd6565b606091505b5091509150611fe6858383612192565b9250505092915050565b600034111561202b576040517fb398979f00000000000000000000000000000000000000000000000000000000815260040160405180910390fd5b565b6000819050919050565b6000670de0b6b3a76400007fffffffffffffffffffffffffffffffffffffffffffffffffffffffffffffffff61206d9190613513565b8211156120b157816040517f1cd951a70000000000000000000000000000000000000000000000000000000081526004016120a89190612719565b60405180910390fd5b670de0b6b3a764000082029050919050565b60006120e76120e26120d485612168565b6120dd85612168565b612221565b61230b565b905092915050565b60006121156120fd83612168565b61210685612168565b6121109190612f27565b61230b565b905092915050565b600061214361212b83612168565b61213485612168565b61213e9190612d12565b61230b565b905092915050565b600061215682612168565b61215f84612168565b10905092915050565b6000819050919050565b600061217c611933565b60000160089054906101000a900460ff16905090565b6060826121a7576121a282612315565b612219565b600082511480156121cf575060008473ffffffffffffffffffffffffffffffffffffffff163b145b1561221157836040517f9996b315000000000000000000000000000000000000000000000000000000008152600401612208919061245d565b60405180910390fd5b81905061221a565b5b9392505050565b600080600080198486098486029250828110838203039150506000810361226457670de0b6b3a7640000828161225a57612259612cb2565b5b0492505050612305565b670de0b6b3a764000081106122b25784846040517f5173648d0000000000000000000000000000000000000000000000000000000081526004016122a9929190613544565b60405180910390fd5b6000670de0b6b3a764000085870990507faccb18165bd6fe31ae1cf318dc5b51eee0e1ba569b88cd74c1773b91fac106696001620400008060000304018483118403026204000083860304170293505050505b92915050565b6000819050919050565b6000815111156123285780518082602001fd5b6040517fd6bda27500000000000000000000000000000000000000000000000000000000815260040160405180910390fd5b604051806110000160405280608090602082028036833780820191505090505090565b6040518060200160405280600190602082028036833780820191505090505090565b6000604051905090565b600080fd5b600080fd5b600063ffffffff82169050919050565b6123cc816123b3565b81146123d757600080fd5b50565b6000813590506123e9816123c3565b92915050565b600060208284031215612405576124046123a9565b5b6000612413848285016123da565b91505092915050565b600073ffffffffffffffffffffffffffffffffffffffff82169050919050565b60006124478261241c565b9050919050565b6124578161243c565b82525050565b6000602082019050612472600083018461244e565b92915050565b6000819050919050565b61248b81612478565b82525050565b60006020820190506124a66000830184612482565b92915050565b6124b58161243c565b81146124c057600080fd5b50565b6000813590506124d2816124ac565b92915050565b6000602082840312156124ee576124ed6123a9565b5b60006124fc848285016124c3565b91505092915050565b6000819050919050565b61251881612505565b811461252357600080fd5b50565b6000813590506125358161250f565b92915050565b600060208284031215612551576125506123a9565b5b600061255f84828501612526565b91505092915050565b600080fd5b600080fd5b6000601f19601f8301169050919050565b7f4e487b7100000000000000000000000000000000000000000000000000000000600052604160045260246000fd5b6125bb82612572565b810181811067ffffffffffffffff821117156125da576125d9612583565b5b80604052505050565b60006125ed61239f565b90506125f982826125b2565b919050565b600067ffffffffffffffff82111561261957612618612583565b5b61262282612572565b9050602081019050919050565b82818337600083830152505050565b600061265161264c846125fe565b6125e3565b90508281526020810184848401111561266d5761266c61256d565b5b61267884828561262f565b509392505050565b600082601f83011261269557612694612568565b5b81356126a584826020860161263e565b91505092915050565b600080604083850312156126c5576126c46123a9565b5b60006126d3858286016124c3565b925050602083013567ffffffffffffffff8111156126f4576126f36123ae565b5b61270085828601612680565b9150509250929050565b61271381612505565b82525050565b600060208201905061272e600083018461270a565b92915050565b61273d816123b3565b82525050565b60006020820190506127586000830184612734565b92915050565b61276781612478565b811461277257600080fd5b50565b6000813590506127848161275e565b92915050565b60007fffffffffffffffffffffffffffffffff0000000000000000000000000000000082169050919050565b6127bf8161278a565b81146127ca57600080fd5b50565b6000813590506127dc816127b6565b92915050565b600080fd5b600081905082602060020282011115612803576128026127e2565b5b92915050565b600081905082602060040282011115612825576128246127e2565b5b92915050565b600080fd5b60008083601f84011261284657612845612568565b5b8235905067ffffffffffffffff8111156128635761286261282b565b5b60208301915083600182028301111561287f5761287e6127e2565b5b9250929050565b6000806000806000806000806101c0898b0312156128a7576128a66123a9565b5b60006128b58b828c01612775565b98505060206128c68b828c016127cd565b97505060406128d78b828c016127e7565b96505060806128e88b828c01612809565b9550506101006128fa8b828c01612809565b94505061018061290c8b828c01612775565b9350506101a089013567ffffffffffffffff81111561292e5761292d6123ae565b5b61293a8b828c01612830565b92509250509295985092959890939650565b600081519050919050565b600082825260208201905092915050565b60005b8381101561298657808201518184015260208101905061296b565b60008484015250505050565b600061299d8261294c565b6129a78185612957565b93506129b7818560208601612968565b6129c081612572565b840191505092915050565b600060208201905081810360008301526129e58184612992565b905092915050565b60008083601f840112612a0357612a02612568565b5b8235905067ffffffffffffffff811115612a2057612a1f61282b565b5b602083019150836020820283011115612a3c57612a3b6127e2565b5b9250929050565b60008060008060008060006101a0888a031215612a6357612a626123a9565b5b6000612a718a828b01612775565b9750506020612a828a828b016127cd565b9650506040612a938a828b016127e7565b9550506080612aa48a828b01612809565b945050610100612ab68a828b01612809565b93505061018088013567ffffffffffffffff811115612ad857612ad76123ae565b5b612ae48a828b016129ed565b925092505092959891949750929550565b60008083601f840112612b0b57612b0a612568565b5b8235905067ffffffffffffffff811115612b2857612b2761282b565b5b602083019150836020820283011115612b4457612b436127e2565b5b9250929050565b600080600060408486031215612b6457612b636123a9565b5b6000612b7286828701612526565b935050602084013567ffffffffffffffff811115612b9357612b926123ae565b5b612b9f86828701612af5565b92509250509250925092565b60008060008060808587031215612bc557612bc46123a9565b5b6000612bd3878288016124c3565b9450506020612be4878288016124c3565b9350506040612bf5878288016124c3565b9250506060612c06878288016124c3565b91505092959194509250565b7f4e487b7100000000000000000000000000000000000000000000000000000000600052603260045260246000fd5b7f4e487b7100000000000000000000000000000000000000000000000000000000600052601160045260246000fd5b6000612c7b82612505565b9150612c8683612505565b9250828202612c9481612505565b91508282048414831517612cab57612caa612c41565b5b5092915050565b7f4e487b7100000000000000000000000000000000000000000000000000000000600052601260045260246000fd5b6000612cec82612505565b9150612cf783612505565b925082612d0757612d06612cb2565b5b828206905092915050565b6000612d1d82612505565b9150612d2883612505565b9250828201905080821115612d4057612d3f612c41565b5b92915050565b6000612d51826123b3565b9150612d5c836123b3565b9250828203905063ffffffff811115612d7857612d77612c41565b5b92915050565b600060809050919050565b600081905092915050565b6000819050919050565b612da781612505565b82525050565b6000612db98383612d9e565b60208301905092915050565b6000602082019050919050565b612ddb81612d7e565b612de58184612d89565b9250612df082612d94565b8060005b83811015612e21578151612e088782612dad565b9650612e1383612dc5565b925050600181019050612df4565b505050505050565b6000612e358284612dd2565b6110008201915081905092915050565b6000612e50826123b3565b915063ffffffff8203612e6657612e65612c41565b5b600182019050919050565b6000819050919050565b600067ffffffffffffffff82169050919050565b6000819050919050565b6000612eb4612eaf612eaa84612e71565b612e8f565b612e7b565b9050919050565b612ec481612e99565b82525050565b6000602082019050612edf6000830184612ebb565b92915050565b600081519050612ef48161275e565b92915050565b600060208284031215612f1057612f0f6123a9565b5b6000612f1e84828501612ee5565b91505092915050565b6000612f3282612505565b9150612f3d83612505565b9250828203905081811115612f5557612f54612c41565b5b92915050565b60008160e01b9050919050565b6000612f7382612f5b565b9050919050565b612f8b612f86826123b3565b612f68565b82525050565b6000819050919050565b612fac612fa782612478565b612f91565b82525050565b6000819050919050565b612fcd612fc88261278a565b612fb2565b82525050565b82818337505050565b612fe860408383612fd3565b5050565b612ff860808383612fd3565b5050565b6000613008828b612f7a565b600482019150613018828a612f9b565b6020820191506130288289612fbc565b6010820191506130388288612f9b565b6020820191506130488287612f9b565b6020820191506130588286612fdc565b6040820191506130688285612fec565b6080820191506130788284612fec565b6080820191508190509998505050505050505050565b60006130a96130a461309f846123b3565b612e8f565b612505565b9050919050565b6130b98161308e565b82525050565b60006060820190506130d460008301866130b0565b6130e16020830185612482565b6130ee6040830184612482565b949350505050565b600061311161310c61310784612e71565b612e8f565b612505565b9050919050565b613121816130f6565b82525050565b600060608201905061313c6000830186612482565b613149602083018561244e565b6131566040830184613118565b949350505050565b60008160011c9050919050565b6000808291508390505b60018511156131b55780860481111561319157613190612c41565b5b60018516156131a05780820291505b80810290506131ae8561315e565b9450613175565b94509492505050565b6000826131ce576001905061328a565b816131dc576000905061328a565b81600181146131f257600281146131fc5761322b565b600191505061328a565b60ff84111561320e5761320d612c41565b5b8360020a91508482111561322557613224612c41565b5b5061328a565b5060208310610133831016604e8410600b84101617156132605782820a90508381111561325b5761325a612c41565b5b61328a565b61326d848484600161316b565b9250905081840481111561328457613283612c41565b5b81810290505b9392505050565b600061329c82612505565b91506132a783612505565b92506132d47fffffffffffffffffffffffffffffffffffffffffffffffffffffffffffffffff84846131be565b905092915050565b60006132e88285612f9b565b6020820191506132f88284612f9b565b6020820191508190509392505050565b7f4e487b7100000000000000000000000000000000000000000000000000000000600052600160045260246000fd5b600060029050919050565b600081905092915050565b6000819050919050565b6000602082019050919050565b61336d81613337565b6133778184613342565b92506133828261334d565b8060005b838110156133b357815161339a8782612dad565b96506133a583613357565b925050600181019050613386565b505050505050565b60006133c78287612fdc565b6040820191506133d78286612fec565b6080820191506133e78285613364565b6040820191506133f78284612fec565b60808201915081905095945050505050565b6000819050919050565b61342461341f82612505565b613409565b82525050565b60006134368286612f9b565b6020820191506134468285612f7a565b6004820191506134568284613413565b602082019150819050949350505050565b60006134738287612f9b565b6020820191506134838286612f9b565b6020820191506134938285612f9b565b6020820191506134a38284612f7a565b60048201915081905095945050505050565b600081519050919050565b600081905092915050565b60006134d6826134b5565b6134e081856134c0565b93506134f0818560208601612968565b80840191505092915050565b600061350882846134cb565b915081905092915050565b600061351e82612505565b915061352983612505565b92508261353957613538612cb2565b5b828204905092915050565b6000604082019050613559600083018561270a565b613566602083018461270a565b939250505056fea2646970667358221220261b3c312b8859544939f0c7b5ce246f940fe58bb7ebbfe6f57094cbdc90d36164736f6c634300081b0033",
  "linkReferences": {},
  "deployedLinkReferences": {}
}