{
  "_format": "hh-sol-artifact-1",
  "contractName": "Rollup",
  "sourceName": "contracts/rollup/Rollup.sol",
  "abi": [
    {
      "inputs": [],
      "stateMutability": "nonpayable",
      "type": "constructor"
    },
    {
      "inputs": [
        {
          "internalType": "address",
          "name": "target",
          "type": "address"
        }
      ],
      "name": "AddressEmptyCode",
      "type": "error"
    },
    {
      "inputs": [],
      "name": "AddressZero",
      "type": "error"
    },
    {
      "inputs": [],
      "name": "BlockNumberOutOfRange",
      "type": "error"
    },
    {
      "inputs": [
        {
          "internalType": "address",
          "name": "implementation",
          "type": "address"
        }
      ],
      "name": "ERC1967InvalidImplementation",
      "type": "error"
    },
    {
      "inputs": [],
      "name": "ERC1967NonPayable",
      "type": "error"
    },
    {
      "inputs": [],
      "name": "FailedCall",
      "type": "error"
    },
    {
      "inputs": [],
      "name": "InsufficientPenaltyFee",
      "type": "error"
    },
    {
      "inputs": [],
      "name": "InvalidInitialization",
      "type": "error"
    },
    {
      "inputs": [],
      "name": "MerkleTreeFull",
      "type": "error"
    },
    {
      "inputs": [],
      "name": "NotInitializing",
      "type": "error"
    },
    {
      "inputs": [],
      "name": "OnlyLiquidity",
      "type": "error"
    },
    {
      "inputs": [],
      "name": "OnlyScrollMessenger",
      "type": "error"
    },
    {
      "inputs": [
        {
          "internalType": "address",
          "name": "owner",
          "type": "address"
        }
      ],
      "name": "OwnableInvalidOwner",
      "type": "error"
    },
    {
      "inputs": [
        {
          "internalType": "address",
          "name": "account",
          "type": "address"
        }
      ],
      "name": "OwnableUnauthorizedAccount",
      "type": "error"
    },
    {
      "inputs": [
        {
          "internalType": "uint256",
          "name": "x",
          "type": "uint256"
        },
        {
          "internalType": "uint256",
          "name": "y",
          "type": "uint256"
        }
      ],
      "name": "PRBMath_MulDiv18_Overflow",
      "type": "error"
    },
    {
      "inputs": [
        {
          "internalType": "uint256",
          "name": "x",
          "type": "uint256"
        }
      ],
      "name": "PRBMath_UD60x18_Convert_Overflow",
      "type": "error"
    },
    {
      "inputs": [],
      "name": "PairingCheckFailed",
      "type": "error"
    },
    {
      "inputs": [],
      "name": "PairingOpCodeFailed",
      "type": "error"
    },
    {
      "inputs": [],
      "name": "SenderAccountIdsInvalidLength",
      "type": "error"
    },
    {
      "inputs": [],
      "name": "TooManyAccountIds",
      "type": "error"
    },
    {
      "inputs": [],
      "name": "TooManySenderPublicKeys",
      "type": "error"
    },
    {
      "inputs": [],
      "name": "UUPSUnauthorizedCallContext",
      "type": "error"
    },
    {
      "inputs": [
        {
          "internalType": "bytes32",
          "name": "slot",
          "type": "bytes32"
        }
      ],
      "name": "UUPSUnsupportedProxiableUUID",
      "type": "error"
    },
    {
      "anonymous": false,
      "inputs": [
        {
          "indexed": true,
          "internalType": "uint256",
          "name": "blockNumber",
          "type": "uint256"
        },
        {
          "indexed": false,
          "internalType": "bytes",
          "name": "accountIds",
          "type": "bytes"
        }
      ],
      "name": "AccountIdsPosted",
      "type": "event"
    },
    {
      "anonymous": false,
      "inputs": [
        {
          "indexed": true,
          "internalType": "bytes32",
          "name": "prevBlockHash",
          "type": "bytes32"
        },
        {
          "indexed": true,
          "internalType": "address",
          "name": "blockBuilder",
          "type": "address"
        },
        {
          "indexed": false,
          "internalType": "uint256",
          "name": "blockNumber",
          "type": "uint256"
        },
        {
          "indexed": false,
          "internalType": "bytes32",
          "name": "depositTreeRoot",
          "type": "bytes32"
        },
        {
          "indexed": false,
          "internalType": "bytes32",
          "name": "signatureHash",
          "type": "bytes32"
        }
      ],
      "name": "BlockPosted",
      "type": "event"
    },
    {
      "anonymous": false,
      "inputs": [
        {
          "indexed": true,
          "internalType": "uint32",
          "name": "depositIndex",
          "type": "uint32"
        },
        {
          "indexed": true,
          "internalType": "bytes32",
          "name": "depositHash",
          "type": "bytes32"
        }
      ],
      "name": "DepositLeafInserted",
      "type": "event"
    },
    {
      "anonymous": false,
      "inputs": [
        {
          "indexed": true,
          "internalType": "uint256",
          "name": "lastProcessedDepositId",
          "type": "uint256"
        },
        {
          "indexed": false,
          "internalType": "bytes32",
          "name": "depositTreeRoot",
          "type": "bytes32"
        }
      ],
      "name": "DepositsProcessed",
      "type": "event"
    },
    {
      "anonymous": false,
      "inputs": [
        {
          "indexed": false,
          "internalType": "uint64",
          "name": "version",
          "type": "uint64"
        }
      ],
      "name": "Initialized",
      "type": "event"
    },
    {
      "anonymous": false,
      "inputs": [
        {
          "indexed": true,
          "internalType": "address",
          "name": "previousOwner",
          "type": "address"
        },
        {
          "indexed": true,
          "internalType": "address",
          "name": "newOwner",
          "type": "address"
        }
      ],
      "name": "OwnershipTransferred",
      "type": "event"
    },
    {
      "anonymous": false,
      "inputs": [
        {
          "indexed": true,
          "internalType": "uint256",
          "name": "blockNumber",
          "type": "uint256"
        },
        {
          "indexed": false,
          "internalType": "uint256[]",
          "name": "senderPublicKeys",
          "type": "uint256[]"
        }
      ],
      "name": "PubKeysPosted",
      "type": "event"
    },
    {
      "anonymous": false,
      "inputs": [
        {
          "indexed": true,
          "internalType": "address",
          "name": "implementation",
          "type": "address"
        }
      ],
      "name": "Upgraded",
      "type": "event"
    },
    {
      "inputs": [],
      "name": "UPGRADE_INTERFACE_VERSION",
      "outputs": [
        {
          "internalType": "string",
          "name": "",
          "type": "string"
        }
      ],
      "stateMutability": "view",
      "type": "function"
    },
    {
      "inputs": [
        {
          "internalType": "uint256",
          "name": "",
          "type": "uint256"
        }
      ],
      "name": "blockBuilders",
      "outputs": [
        {
          "internalType": "address",
          "name": "",
          "type": "address"
        }
      ],
      "stateMutability": "view",
      "type": "function"
    },
    {
      "inputs": [
        {
          "internalType": "uint256",
          "name": "",
          "type": "uint256"
        }
      ],
      "name": "blockHashes",
      "outputs": [
        {
          "internalType": "bytes32",
          "name": "",
          "type": "bytes32"
        }
      ],
      "stateMutability": "view",
      "type": "function"
    },
    {
      "inputs": [],
      "name": "depositIndex",
      "outputs": [
        {
          "internalType": "uint32",
          "name": "",
          "type": "uint32"
        }
      ],
      "stateMutability": "view",
      "type": "function"
    },
    {
      "inputs": [],
      "name": "depositTreeRoot",
      "outputs": [
        {
          "internalType": "bytes32",
          "name": "",
          "type": "bytes32"
        }
      ],
      "stateMutability": "view",
      "type": "function"
    },
    {
      "inputs": [
        {
          "internalType": "uint32",
          "name": "blockNumber",
          "type": "uint32"
        }
      ],
      "name": "getBlockBuilder",
      "outputs": [
        {
          "internalType": "address",
          "name": "",
          "type": "address"
        }
      ],
      "stateMutability": "view",
      "type": "function"
    },
    {
      "inputs": [
        {
          "internalType": "uint32",
          "name": "blockNumber",
          "type": "uint32"
        }
      ],
      "name": "getBlockHash",
      "outputs": [
        {
          "internalType": "bytes32",
          "name": "",
          "type": "bytes32"
        }
      ],
      "stateMutability": "view",
      "type": "function"
    },
    {
      "inputs": [],
      "name": "getLatestBlockNumber",
      "outputs": [
        {
          "internalType": "uint32",
          "name": "",
          "type": "uint32"
        }
      ],
      "stateMutability": "view",
      "type": "function"
    },
    {
      "inputs": [
        {
          "internalType": "address",
          "name": "_scrollMessenger",
          "type": "address"
        },
        {
          "internalType": "address",
          "name": "_liquidity",
          "type": "address"
        },
        {
          "internalType": "address",
          "name": "_contribution",
          "type": "address"
        }
      ],
      "name": "initialize",
      "outputs": [],
      "stateMutability": "nonpayable",
      "type": "function"
    },
    {
      "inputs": [],
      "name": "lastProcessedDepositId",
      "outputs": [
        {
          "internalType": "uint256",
          "name": "",
          "type": "uint256"
        }
      ],
      "stateMutability": "view",
      "type": "function"
    },
    {
      "inputs": [],
      "name": "owner",
      "outputs": [
        {
          "internalType": "address",
          "name": "",
          "type": "address"
        }
      ],
      "stateMutability": "view",
      "type": "function"
    },
    {
      "inputs": [
        {
          "internalType": "bytes32",
          "name": "txTreeRoot",
          "type": "bytes32"
        },
        {
          "internalType": "bytes16",
          "name": "senderFlags",
          "type": "bytes16"
        },
        {
          "internalType": "bytes32[2]",
          "name": "aggregatedPublicKey",
          "type": "bytes32[2]"
        },
        {
          "internalType": "bytes32[4]",
          "name": "aggregatedSignature",
          "type": "bytes32[4]"
        },
        {
          "internalType": "bytes32[4]",
          "name": "messagePoint",
          "type": "bytes32[4]"
        },
        {
          "internalType": "bytes32",
          "name": "publicKeysHash",
          "type": "bytes32"
        },
        {
          "internalType": "bytes",
          "name": "senderAccountIds",
          "type": "bytes"
        }
      ],
      "name": "postNonRegistrationBlock",
      "outputs": [],
      "stateMutability": "payable",
      "type": "function"
    },
    {
      "inputs": [
        {
          "internalType": "bytes32",
          "name": "txTreeRoot",
          "type": "bytes32"
        },
        {
          "internalType": "bytes16",
          "name": "senderFlags",
          "type": "bytes16"
        },
        {
          "internalType": "bytes32[2]",
          "name": "aggregatedPublicKey",
          "type": "bytes32[2]"
        },
        {
          "internalType": "bytes32[4]",
          "name": "aggregatedSignature",
          "type": "bytes32[4]"
        },
        {
          "internalType": "bytes32[4]",
          "name": "messagePoint",
          "type": "bytes32[4]"
        },
        {
          "internalType": "uint256[]",
          "name": "senderPublicKeys",
          "type": "uint256[]"
        }
      ],
      "name": "postRegistrationBlock",
      "outputs": [],
      "stateMutability": "payable",
      "type": "function"
    },
    {
      "inputs": [
        {
          "internalType": "uint256",
          "name": "_lastProcessedDepositId",
          "type": "uint256"
        },
        {
          "internalType": "bytes32[]",
          "name": "depositHashes",
          "type": "bytes32[]"
        }
      ],
      "name": "processDeposits",
      "outputs": [],
      "stateMutability": "nonpayable",
      "type": "function"
    },
    {
      "inputs": [],
      "name": "proxiableUUID",
      "outputs": [
        {
          "internalType": "bytes32",
          "name": "",
          "type": "bytes32"
        }
      ],
      "stateMutability": "view",
      "type": "function"
    },
    {
      "inputs": [],
      "name": "renounceOwnership",
      "outputs": [],
      "stateMutability": "nonpayable",
      "type": "function"
    },
    {
      "inputs": [
        {
          "internalType": "address",
          "name": "newOwner",
          "type": "address"
        }
      ],
      "name": "transferOwnership",
      "outputs": [],
      "stateMutability": "nonpayable",
      "type": "function"
    },
    {
      "inputs": [
        {
          "internalType": "address",
          "name": "newImplementation",
          "type": "address"
        },
        {
          "internalType": "bytes",
          "name": "data",
          "type": "bytes"
        }
      ],
      "name": "upgradeToAndCall",
      "outputs": [],
      "stateMutability": "payable",
      "type": "function"
    },
    {
      "inputs": [
        {
          "internalType": "address",
          "name": "to",
          "type": "address"
        }
      ],
      "name": "withdrawPenaltyFee",
      "outputs": [],
      "stateMutability": "nonpayable",
      "type": "function"
    }
  ],
  "bytecode": "0x60a06040523073ffffffffffffffffffffffffffffffffffffffff1660809073ffffffffffffffffffffffffffffffffffffffff1681525034801561004357600080fd5b5061005261005760201b60201c565b6101c1565b600061006761015b60201b60201c565b90508060000160089054906101000a900460ff16156100b2576040517ff92ee8a900000000000000000000000000000000000000000000000000000000815260040160405180910390fd5b67ffffffffffffffff80168160000160009054906101000a900467ffffffffffffffff1667ffffffffffffffff16146101585767ffffffffffffffff8160000160006101000a81548167ffffffffffffffff021916908367ffffffffffffffff1602179055507fc7f505b2f371ae2175ee4913f4499e1f2633a7b5936321eed1cdaeb6115181d267ffffffffffffffff60405161014f91906101a6565b60405180910390a15b50565b60007ff0c57e16840df040f15088dc2f81fe391c3923bec73e23a9662efc9c229c6a00905090565b600067ffffffffffffffff82169050919050565b6101a081610183565b82525050565b60006020820190506101bb6000830184610197565b92915050565b60805161360a6101ea6000396000818161112a0152818161117f015261133a015261360a6000f3fe6080604052600436106101145760003560e01c8063842f1bfc116100a0578063c76c388411610064578063c76c388414610373578063c7bffeeb1461039e578063d2b210a1146103ba578063f03efa37146103f7578063f2fde38b1461042057610114565b8063842f1bfc1461029b5780638da5cb5b146102b7578063ad3cb1cc146102e2578063b568a0551461030d578063c0c53b8b1461034a57610114565b80634f1ef286116100e75780634f1ef286146101e757806352d1902d14610203578063567419c11461022e578063715018a6146102595780637b8989391461027057610114565b806306f743c0146101195780631d9a07b91461015657806325d89cfd1461018157806334cdf78d146101aa575b600080fd5b34801561012557600080fd5b50610140600480360381019061013b91906123da565b610449565b60405161014d9190612448565b60405180910390f35b34801561016257600080fd5b5061016b6104e5565b604051610178919061247c565b60405180910390f35b34801561018d57600080fd5b506101a860048036038101906101a391906124c3565b6104eb565b005b3480156101b657600080fd5b506101d160048036038101906101cc9190612526565b61053d565b6040516101de919061247c565b60405180910390f35b61020160048036038101906101fc9190612699565b610561565b005b34801561020f57600080fd5b50610218610580565b604051610225919061247c565b60405180910390f35b34801561023a57600080fd5b506102436105b3565b6040516102509190612704565b60405180910390f35b34801561026557600080fd5b5061026e6105b9565b005b34801561027c57600080fd5b506102856105cd565b604051610292919061272e565b60405180910390f35b6102b560048036038101906102b09190612871565b6105e3565b005b3480156102c357600080fd5b506102cc610852565b6040516102d99190612448565b60405180910390f35b3480156102ee57600080fd5b506102f761088a565b60405161030491906129b6565b60405180910390f35b34801561031957600080fd5b50610334600480360381019061032f9190612526565b6108c3565b6040516103419190612448565b60405180910390f35b34801561035657600080fd5b50610371600480360381019061036c91906129d8565b610902565b005b34801561037f57600080fd5b50610388610c5c565b604051610395919061272e565b60405180910390f35b6103b860048036038101906103b39190612a81565b610c79565b005b3480156103c657600080fd5b506103e160048036038101906103dc91906123da565b610df6565b6040516103ee919061247c565b60405180910390f35b34801561040357600080fd5b5061041e60048036038101906104199190612b89565b610e72565b005b34801561042c57600080fd5b50610447600480360381019061044291906124c3565b61100d565b005b60006104556002611093565b63ffffffff168263ffffffff1610610499576040517f98f1199600000000000000000000000000000000000000000000000000000000815260040160405180910390fd5b60038263ffffffff16815481106104b3576104b2612be9565b5b9060005260206000200160009054906101000a900473ffffffffffffffffffffffffffffffffffffffff169050919050565b602a5481565b6104f36110a1565b8073ffffffffffffffffffffffffffffffffffffffff166108fc479081150290604051600060405180830381858888f19350505050158015610539573d6000803e3d6000fd5b5050565b6002818154811061054d57600080fd5b906000526020600020016000915090505481565b610569611128565b6105728261120e565b61057c8282611219565b5050565b600061058a611338565b7f360894a13ba1a3210667c828492db98dca3e2076cc3735a920a3ca505d382bbc60001b905090565b60015481565b6105c16110a1565b6105cb60006113bf565b565b602b60009054906101000a900463ffffffff1681565b6105eb611496565b6000828290509050600560806106019190612c47565b81111561063a576040517f6771216a00000000000000000000000000000000000000000000000000000000815260040160405180910390fd5b60006005826106499190612cb8565b14610680576040517f41adec0d00000000000000000000000000000000000000000000000000000000815260040160405180910390fd5b600061068c6002611093565b90508063ffffffff167f7e4f72212a0dbcb829e5fdaad6c3cb28556083f04fc687bfa2b2e40432bbb93585856040516106c6929190612d27565b60405180910390a26000600560806106de9190612c47565b67ffffffffffffffff8111156106f7576106f661256e565b5b6040519080825280601f01601f1916602001820160405280156107295781602001600182028036833780820191505090505b50905060005b838110156107a35785858281811061074a57610749612be9565b5b9050013560f81c60f81b82828151811061076757610766612be9565b5b60200101907effffffffffffffffffffffffffffffffffffffffffffffffffffffffffffff1916908160001a905350808060010191505061072f565b5060008390505b600560806107b89190612c47565b81101561082657600160f81b826004836107d29190612d4b565b815181106107e3576107e2612be9565b5b60200101907effffffffffffffffffffffffffffffffffffffffffffffffffffffffffffff1916908160001a90535060058161081f9190612d4b565b90506107aa565b5060008180519060200120905061084460008d8d8a858f8f8f61154a565b505050505050505050505050565b60008061085d6116e7565b90508060000160009054906101000a900473ffffffffffffffffffffffffffffffffffffffff1691505090565b6040518060400160405280600581526020017f352e302e3000000000000000000000000000000000000000000000000000000081525081565b600381815481106108d357600080fd5b906000526020600020016000915054906101000a900473ffffffffffffffffffffffffffffffffffffffff1681565b600061090c61170f565b905060008160000160089054906101000a900460ff1615905060008260000160009054906101000a900467ffffffffffffffff1690506000808267ffffffffffffffff1614801561095a5750825b9050600060018367ffffffffffffffff1614801561098f575060003073ffffffffffffffffffffffffffffffffffffffff163b145b90508115801561099d575080155b156109d4576040517ff92ee8a900000000000000000000000000000000000000000000000000000000815260040160405180910390fd5b60018560000160006101000a81548167ffffffffffffffff021916908367ffffffffffffffff1602179055508315610a245760018560000160086101000a81548160ff0219169083151502179055505b610a34610a2f611737565b61173f565b610a3c611753565b610a46600661175d565b87600460006101000a81548173ffffffffffffffffffffffffffffffffffffffff021916908373ffffffffffffffffffffffffffffffffffffffff160217905550866000806101000a81548173ffffffffffffffffffffffffffffffffffffffff021916908373ffffffffffffffffffffffffffffffffffffffff16021790555085600560006101000a81548173ffffffffffffffffffffffffffffffffffffffff021916908373ffffffffffffffffffffffffffffffffffffffff160217905550610b76600660405180606001604052908160008201602080602002604051908101604052809291908260208015610b54576020028201915b815481526020019060010190808311610b40575b5050505050815260200160208201548152602001602182015481525050611796565b602a81905550610b92602a54600261188690919063ffffffff16565b600360009080600181540180825580915050600190039060005260206000200160009091909190916101000a81548173ffffffffffffffffffffffffffffffffffffffff021916908373ffffffffffffffffffffffffffffffffffffffff1602179055508315610c525760008560000160086101000a81548160ff0219169083151502179055507fc7f505b2f371ae2175ee4913f4499e1f2633a7b5936321eed1cdaeb6115181d26001604051610c499190612dd8565b60405180910390a15b5050505050505050565b60006001610c6a6002611093565b610c749190612df3565b905090565b610c81611496565b60008282905090506080811115610cc4576040517f07b556c900000000000000000000000000000000000000000000000000000000815260040160405180910390fd5b6000610cd06002611093565b90508063ffffffff167f7a873ae11bb72d3848d5c34af1354cdd12aa5b30ec0d5187ec00ba5cefcd5c7f8585604051610d0a929190612ea6565b60405180910390a2610d1a612345565b60005b83811015610d6857858582818110610d3857610d37612be9565b5b90506020020135828260808110610d5257610d51612be9565b5b6020020181815250508080600101915050610d1d565b5060008390505b6080811015610da3576001828260808110610d8d57610d8c612be9565b5b6020020181815250508080600101915050610d6f565b50600081604051602001610db79190612f75565b60405160208183030381529060405280519060200120905060008060001b9050610de860018d8d85858f8f8f61154a565b505050505050505050505050565b6000610e026002611093565b63ffffffff168263ffffffff1610610e46576040517f98f1199600000000000000000000000000000000000000000000000000000000815260040160405180910390fd5b60028263ffffffff1681548110610e6057610e5f612be9565b5b90600052602060002001549050919050565b6000602b60009054906101000a900463ffffffff16905060005b83839050811015610f2c57610ec4848483818110610ead57610eac612be9565b5b9050602002013560066118c490919063ffffffff16565b838382818110610ed757610ed6612be9565b5b905060200201358263ffffffff167f529a1f0fdd7142aabe2b12dd8590a30a26c8427b5200ad8c775a5b4aa03fb41d60405160405180910390a38180610f1c90612f91565b9250508080600101915050610e8c565b5080602b60006101000a81548163ffffffff021916908363ffffffff160217905550836001819055506000610fc5600660405180606001604052908160008201602080602002604051908101604052809291908260208015610fa3576020028201915b815481526020019060010190808311610f8f575b5050505050815260200160208201548152602001602182015481525050611796565b905080602a81905550847f598fdeda3e3b7298359a08c9a438151e3481bdcf3c3ff9906fa71dcc723617b082604051610ffe919061247c565b60405180910390a25050505050565b6110156110a1565b600073ffffffffffffffffffffffffffffffffffffffff168173ffffffffffffffffffffffffffffffffffffffff16036110875760006040517f1e4fbdf700000000000000000000000000000000000000000000000000000000815260040161107e9190612448565b60405180910390fd5b611090816113bf565b50565b600081805490509050919050565b6110a9611737565b73ffffffffffffffffffffffffffffffffffffffff166110c7610852565b73ffffffffffffffffffffffffffffffffffffffff1614611126576110ea611737565b6040517f118cdaa700000000000000000000000000000000000000000000000000000000815260040161111d9190612448565b60405180910390fd5b565b7f000000000000000000000000000000000000000000000000000000000000000073ffffffffffffffffffffffffffffffffffffffff163073ffffffffffffffffffffffffffffffffffffffff1614806111d557507f000000000000000000000000000000000000000000000000000000000000000073ffffffffffffffffffffffffffffffffffffffff166111bc6119e3565b73ffffffffffffffffffffffffffffffffffffffff1614155b1561120c576040517fe07c8dba00000000000000000000000000000000000000000000000000000000815260040160405180910390fd5b565b6112166110a1565b50565b8173ffffffffffffffffffffffffffffffffffffffff166352d1902d6040518163ffffffff1660e01b8152600401602060405180830381865afa92505050801561128157506040513d601f19601f8201168201806040525081019061127e9190612fd2565b60015b6112c257816040517f4c9c8ce30000000000000000000000000000000000000000000000000000000081526004016112b99190612448565b60405180910390fd5b7f360894a13ba1a3210667c828492db98dca3e2076cc3735a920a3ca505d382bbc60001b811461132957806040517faa1d49a4000000000000000000000000000000000000000000000000000000008152600401611320919061247c565b60405180910390fd5b6113338383611a3a565b505050565b7f000000000000000000000000000000000000000000000000000000000000000073ffffffffffffffffffffffffffffffffffffffff163073ffffffffffffffffffffffffffffffffffffffff16146113bd576040517fe07c8dba00000000000000000000000000000000000000000000000000000000815260040160405180910390fd5b565b60006113c96116e7565b905060008160000160009054906101000a900473ffffffffffffffffffffffffffffffffffffffff169050828260000160006101000a81548173ffffffffffffffffffffffffffffffffffffffff021916908373ffffffffffffffffffffffffffffffffffffffff1602179055508273ffffffffffffffffffffffffffffffffffffffff168173ffffffffffffffffffffffffffffffffffffffff167f8be0079c531659141344cd1fd0a4f28419497f9722a3daafe3b4186f6b6457e060405160405180910390a3505050565b60006114a26028611aad565b9050348111156114de576040517f4686819200000000000000000000000000000000000000000000000000000000815260040160405180910390fd5b600081346114ec9190612fff565b90506000811115611546576114ff611737565b73ffffffffffffffffffffffffffffffffffffffff166108fc829081150290604051600060405180830381858888f19350505050158015611544573d6000803e3d6000fd5b505b5050565b6000611557848484611bcd565b905080611590576040517f0f2512a200000000000000000000000000000000000000000000000000000000815260040160405180910390fd5b60008961159e5760006115a1565b60015b60ff16898989898989896040516020016115c29897969594939291906130cb565b60405160208183030381529060405280519060200120905060006115e66002611093565b905060006115f46002611cbb565b90506000602a54905061161381856002611cf29092919063ffffffff16565b50600361161e611737565b9080600181540180825580915050600190039060005260206000200160009091909190916101000a81548173ffffffffffffffffffffffffffffffffffffffff021916908373ffffffffffffffffffffffffffffffffffffffff160217905550611686611737565b73ffffffffffffffffffffffffffffffffffffffff16827fe27163b76905dc373b4ad854ddc9403bbac659c5f1c5191c39e5a7c44574040a8584886040516116d09392919061318e565b60405180910390a350505050505050505050505050565b60007f9016d09d72d40fdae2fd8ceac6b6234c7706214fd39c1cd1e609a0528c199300905090565b60007ff0c57e16840df040f15088dc2f81fe391c3923bec73e23a9662efc9c229c6a00905090565b600033905090565b611747611d41565b61175081611d81565b50565b61175b611d41565b565b61178b60405180606001604052806000801b8152602001600063ffffffff1681526020016000815250611e07565b816021018190555050565b6000808260400151905060008360200151905060008460400151905060005b602081101561187a576001808285901c160361181657856000015181602081106117e2576117e1612be9565b5b6020020151846040516020016117f99291906131c5565b604051602081830303815290604052805190602001209350611842565b83826040516020016118299291906131c5565b6040516020818303038152906040528051906020012093505b81826040516020016118559291906131c5565b60405160208183030381529060405280519060200120915080806001019150506117b5565b50829350505050919050565b8161189a6000801b836000801b6000611e47565b90806001815401808255809150506001900390600052602060002001600090919091909150555050565b60008190506000836020015490506001602060026118e29190613324565b6118ec9190612fff565b8110611924576040517fef5ccf6600000000000000000000000000000000000000000000000000000000815260040160405180910390fd5b60006001826119339190612d4b565b905080856020018190555060005b60208110156119cb576001808284901c160361197c578386600001826020811061196e5761196d612be9565b5b0181905550505050506119df565b85600001816020811061199257611991612be9565b5b0154846040516020016119a69291906131c5565b6040516020818303038152906040528051906020012093508080600101915050611941565b5060006119db576119da61336f565b5b5050505b5050565b6000611a117f360894a13ba1a3210667c828492db98dca3e2076cc3735a920a3ca505d382bbc60001b611e80565b60000160009054906101000a900473ffffffffffffffffffffffffffffffffffffffff16905090565b611a4382611e8a565b8173ffffffffffffffffffffffffffffffffffffffff167fbc7cd75a20ee27fd9adebab32041f755214dbc6bffa90cc0225b39da2e5c2d3b60405160405180910390a2600081511115611aa057611a9a8282611f57565b50611aa9565b611aa8611fdb565b5b5050565b6000804290506000611ac667d02ab486cedc0000612018565b90506000846000015403611af157818460000181905550808460010181905550600092505050611bc8565b6000611b046704a03ce68d215555612018565b90506000611b20866000015485611b1b9190612fff565b612022565b90506000611b56611b3184846120ae565b611b51611b47611b416001612022565b876120da565b8a600101546120ae565b612108565b9050808760010181905550848760000181905550611b748185612136565b15611bbe576000611b8585836120da565b9050611bb1611bac611ba6611ba066038d7ea4c68000612018565b846120ae565b836120ae565b612153565b9650505050505050611bc8565b6000955050505050505b919050565b60008084836040518060400160405280600181526020017f30644e72e131a029b85045b68181585d97816a916871ca8d3c208c16d87cfd4581525086604051602001611c1c9493929190613422565b6040516020818303038152906040529050611c35612368565b60008083519050602083826020870160086107d05a03fa91508160008103611c5957fe5b5081611c91576040517fdef2011f00000000000000000000000000000000000000000000000000000000815260040160405180910390fd5b600083600060018110611ca757611ca6612be9565b5b602002015114159450505050509392505050565b60008160018380549050611ccf9190612fff565b81548110611ce057611cdf612be9565b5b90600052602060002001549050919050565b6000611d10611d0085611cbb565b8484611d0b88611093565b611e47565b9050838190806001815401808255809150506001900390600052602060002001600090919091909150559392505050565b611d4961215d565b611d7f576040517fd7e6bcf800000000000000000000000000000000000000000000000000000000815260040160405180910390fd5b565b611d89611d41565b600073ffffffffffffffffffffffffffffffffffffffff168173ffffffffffffffffffffffffffffffffffffffff1603611dfb5760006040517f1e4fbdf7000000000000000000000000000000000000000000000000000000008152600401611df29190612448565b60405180910390fd5b611e04816113bf565b50565b6000816000015182602001518360400151604051602001611e2a93929190613491565b604051602081830303815290604052805190602001209050919050565b600084848484604051602001611e6094939291906134ce565b604051602081830303815290604052805190602001209050949350505050565b6000819050919050565b60008173ffffffffffffffffffffffffffffffffffffffff163b03611ee657806040517f4c9c8ce3000000000000000000000000000000000000000000000000000000008152600401611edd9190612448565b60405180910390fd5b80611f137f360894a13ba1a3210667c828492db98dca3e2076cc3735a920a3ca505d382bbc60001b611e80565b60000160006101000a81548173ffffffffffffffffffffffffffffffffffffffff021916908373ffffffffffffffffffffffffffffffffffffffff16021790555050565b60606000808473ffffffffffffffffffffffffffffffffffffffff1684604051611f819190613563565b600060405180830381855af49150503d8060008114611fbc576040519150601f19603f3d011682016040523d82523d6000602084013e611fc1565b606091505b5091509150611fd185838361217d565b9250505092915050565b6000341115612016576040517fb398979f00000000000000000000000000000000000000000000000000000000815260040160405180910390fd5b565b6000819050919050565b6000670de0b6b3a76400007fffffffffffffffffffffffffffffffffffffffffffffffffffffffffffffffff612058919061357a565b82111561209c57816040517f1cd951a70000000000000000000000000000000000000000000000000000000081526004016120939190612704565b60405180910390fd5b670de0b6b3a764000082029050919050565b60006120d26120cd6120bf85612153565b6120c885612153565b61220c565b6122f6565b905092915050565b60006121006120e883612153565b6120f185612153565b6120fb9190612fff565b6122f6565b905092915050565b600061212e61211683612153565b61211f85612153565b6121299190612d4b565b6122f6565b905092915050565b600061214182612153565b61214a84612153565b10905092915050565b6000819050919050565b600061216761170f565b60000160089054906101000a900460ff16905090565b6060826121925761218d82612300565b612204565b600082511480156121ba575060008473ffffffffffffffffffffffffffffffffffffffff163b145b156121fc57836040517f9996b3150000000000000000000000000000000000000000000000000000000081526004016121f39190612448565b60405180910390fd5b819050612205565b5b9392505050565b600080600080198486098486029250828110838203039150506000810361224f57670de0b6b3a7640000828161224557612244612c89565b5b04925050506122f0565b670de0b6b3a7640000811061229d5784846040517f5173648d0000000000000000000000000000000000000000000000000000000081526004016122949291906135ab565b60405180910390fd5b6000670de0b6b3a764000085870990507faccb18165bd6fe31ae1cf318dc5b51eee0e1ba569b88cd74c1773b91fac106696001620400008060000304018483118403026204000083860304170293505050505b92915050565b6000819050919050565b6000815111156123135780518082602001fd5b6040517fd6bda27500000000000000000000000000000000000000000000000000000000815260040160405180910390fd5b604051806110000160405280608090602082028036833780820191505090505090565b6040518060200160405280600190602082028036833780820191505090505090565b6000604051905090565b600080fd5b600080fd5b600063ffffffff82169050919050565b6123b78161239e565b81146123c257600080fd5b50565b6000813590506123d4816123ae565b92915050565b6000602082840312156123f0576123ef612394565b5b60006123fe848285016123c5565b91505092915050565b600073ffffffffffffffffffffffffffffffffffffffff82169050919050565b600061243282612407565b9050919050565b61244281612427565b82525050565b600060208201905061245d6000830184612439565b92915050565b6000819050919050565b61247681612463565b82525050565b6000602082019050612491600083018461246d565b92915050565b6124a081612427565b81146124ab57600080fd5b50565b6000813590506124bd81612497565b92915050565b6000602082840312156124d9576124d8612394565b5b60006124e7848285016124ae565b91505092915050565b6000819050919050565b612503816124f0565b811461250e57600080fd5b50565b600081359050612520816124fa565b92915050565b60006020828403121561253c5761253b612394565b5b600061254a84828501612511565b91505092915050565b600080fd5b600080fd5b6000601f19601f8301169050919050565b7f4e487b7100000000000000000000000000000000000000000000000000000000600052604160045260246000fd5b6125a68261255d565b810181811067ffffffffffffffff821117156125c5576125c461256e565b5b80604052505050565b60006125d861238a565b90506125e4828261259d565b919050565b600067ffffffffffffffff8211156126045761260361256e565b5b61260d8261255d565b9050602081019050919050565b82818337600083830152505050565b600061263c612637846125e9565b6125ce565b90508281526020810184848401111561265857612657612558565b5b61266384828561261a565b509392505050565b600082601f8301126126805761267f612553565b5b8135612690848260208601612629565b91505092915050565b600080604083850312156126b0576126af612394565b5b60006126be858286016124ae565b925050602083013567ffffffffffffffff8111156126df576126de612399565b5b6126eb8582860161266b565b9150509250929050565b6126fe816124f0565b82525050565b600060208201905061271960008301846126f5565b92915050565b6127288161239e565b82525050565b6000602082019050612743600083018461271f565b92915050565b61275281612463565b811461275d57600080fd5b50565b60008135905061276f81612749565b92915050565b60007fffffffffffffffffffffffffffffffff0000000000000000000000000000000082169050919050565b6127aa81612775565b81146127b557600080fd5b50565b6000813590506127c7816127a1565b92915050565b600080fd5b6000819050826020600202820111156127ee576127ed6127cd565b5b92915050565b6000819050826020600402820111156128105761280f6127cd565b5b92915050565b600080fd5b60008083601f84011261283157612830612553565b5b8235905067ffffffffffffffff81111561284e5761284d612816565b5b60208301915083600182028301111561286a576128696127cd565b5b9250929050565b6000806000806000806000806101c0898b03121561289257612891612394565b5b60006128a08b828c01612760565b98505060206128b18b828c016127b8565b97505060406128c28b828c016127d2565b96505060806128d38b828c016127f4565b9550506101006128e58b828c016127f4565b9450506101806128f78b828c01612760565b9350506101a089013567ffffffffffffffff81111561291957612918612399565b5b6129258b828c0161281b565b92509250509295985092959890939650565b600081519050919050565b600082825260208201905092915050565b60005b83811015612971578082015181840152602081019050612956565b60008484015250505050565b600061298882612937565b6129928185612942565b93506129a2818560208601612953565b6129ab8161255d565b840191505092915050565b600060208201905081810360008301526129d0818461297d565b905092915050565b6000806000606084860312156129f1576129f0612394565b5b60006129ff868287016124ae565b9350506020612a10868287016124ae565b9250506040612a21868287016124ae565b9150509250925092565b60008083601f840112612a4157612a40612553565b5b8235905067ffffffffffffffff811115612a5e57612a5d612816565b5b602083019150836020820283011115612a7a57612a796127cd565b5b9250929050565b60008060008060008060006101a0888a031215612aa157612aa0612394565b5b6000612aaf8a828b01612760565b9750506020612ac08a828b016127b8565b9650506040612ad18a828b016127d2565b9550506080612ae28a828b016127f4565b945050610100612af48a828b016127f4565b93505061018088013567ffffffffffffffff811115612b1657612b15612399565b5b612b228a828b01612a2b565b925092505092959891949750929550565b60008083601f840112612b4957612b48612553565b5b8235905067ffffffffffffffff811115612b6657612b65612816565b5b602083019150836020820283011115612b8257612b816127cd565b5b9250929050565b600080600060408486031215612ba257612ba1612394565b5b6000612bb086828701612511565b935050602084013567ffffffffffffffff811115612bd157612bd0612399565b5b612bdd86828701612b33565b92509250509250925092565b7f4e487b7100000000000000000000000000000000000000000000000000000000600052603260045260246000fd5b7f4e487b7100000000000000000000000000000000000000000000000000000000600052601160045260246000fd5b6000612c52826124f0565b9150612c5d836124f0565b9250828202612c6b816124f0565b91508282048414831517612c8257612c81612c18565b5b5092915050565b7f4e487b7100000000000000000000000000000000000000000000000000000000600052601260045260246000fd5b6000612cc3826124f0565b9150612cce836124f0565b925082612cde57612cdd612c89565b5b828206905092915050565b600082825260208201905092915050565b6000612d068385612ce9565b9350612d1383858461261a565b612d1c8361255d565b840190509392505050565b60006020820190508181036000830152612d42818486612cfa565b90509392505050565b6000612d56826124f0565b9150612d61836124f0565b9250828201905080821115612d7957612d78612c18565b5b92915050565b6000819050919050565b600067ffffffffffffffff82169050919050565b6000819050919050565b6000612dc2612dbd612db884612d7f565b612d9d565b612d89565b9050919050565b612dd281612da7565b82525050565b6000602082019050612ded6000830184612dc9565b92915050565b6000612dfe8261239e565b9150612e098361239e565b9250828203905063ffffffff811115612e2557612e24612c18565b5b92915050565b600082825260208201905092915050565b600080fd5b82818337505050565b6000612e568385612e2b565b93507f07ffffffffffffffffffffffffffffffffffffffffffffffffffffffffffffff831115612e8957612e88612e3c565b5b602083029250612e9a838584612e41565b82840190509392505050565b60006020820190508181036000830152612ec1818486612e4a565b90509392505050565b600060809050919050565b600081905092915050565b6000819050919050565b612ef3816124f0565b82525050565b6000612f058383612eea565b60208301905092915050565b6000602082019050919050565b612f2781612eca565b612f318184612ed5565b9250612f3c82612ee0565b8060005b83811015612f6d578151612f548782612ef9565b9650612f5f83612f11565b925050600181019050612f40565b505050505050565b6000612f818284612f1e565b6110008201915081905092915050565b6000612f9c8261239e565b915063ffffffff8203612fb257612fb1612c18565b5b600182019050919050565b600081519050612fcc81612749565b92915050565b600060208284031215612fe857612fe7612394565b5b6000612ff684828501612fbd565b91505092915050565b600061300a826124f0565b9150613015836124f0565b925082820390508181111561302d5761302c612c18565b5b92915050565b60008160e01b9050919050565b600061304b82613033565b9050919050565b61306361305e8261239e565b613040565b82525050565b6000819050919050565b61308461307f82612463565b613069565b82525050565b6000819050919050565b6130a56130a082612775565b61308a565b82525050565b6130b760408383612e41565b5050565b6130c760808383612e41565b5050565b60006130d7828b613052565b6004820191506130e7828a613073565b6020820191506130f78289613094565b6010820191506131078288613073565b6020820191506131178287613073565b60208201915061312782866130ab565b60408201915061313782856130bb565b60808201915061314782846130bb565b6080820191508190509998505050505050505050565b600061317861317361316e8461239e565b612d9d565b6124f0565b9050919050565b6131888161315d565b82525050565b60006060820190506131a3600083018661317f565b6131b0602083018561246d565b6131bd604083018461246d565b949350505050565b60006131d18285613073565b6020820191506131e18284613073565b6020820191508190509392505050565b60008160011c9050919050565b6000808291508390505b60018511156132485780860481111561322457613223612c18565b5b60018516156132335780820291505b8081029050613241856131f1565b9450613208565b94509492505050565b600082613261576001905061331d565b8161326f576000905061331d565b8160018114613285576002811461328f576132be565b600191505061331d565b60ff8411156132a1576132a0612c18565b5b8360020a9150848211156132b8576132b7612c18565b5b5061331d565b5060208310610133831016604e8410600b84101617156132f35782820a9050838111156132ee576132ed612c18565b5b61331d565b61330084848460016131fe565b9250905081840481111561331757613316612c18565b5b81810290505b9392505050565b600061332f826124f0565b915061333a836124f0565b92506133677fffffffffffffffffffffffffffffffffffffffffffffffffffffffffffffffff8484613251565b905092915050565b7f4e487b7100000000000000000000000000000000000000000000000000000000600052600160045260246000fd5b600060029050919050565b600081905092915050565b6000819050919050565b6000602082019050919050565b6133d48161339e565b6133de81846133a9565b92506133e9826133b4565b8060005b8381101561341a5781516134018782612ef9565b965061340c836133be565b9250506001810190506133ed565b505050505050565b600061342e82876130ab565b60408201915061343e82866130bb565b60808201915061344e82856133cb565b60408201915061345e82846130bb565b60808201915081905095945050505050565b6000819050919050565b61348b613486826124f0565b613470565b82525050565b600061349d8286613073565b6020820191506134ad8285613052565b6004820191506134bd828461347a565b602082019150819050949350505050565b60006134da8287613073565b6020820191506134ea8286613073565b6020820191506134fa8285613073565b60208201915061350a8284613052565b60048201915081905095945050505050565b600081519050919050565b600081905092915050565b600061353d8261351c565b6135478185613527565b9350613557818560208601612953565b80840191505092915050565b600061356f8284613532565b915081905092915050565b6000613585826124f0565b9150613590836124f0565b9250826135a05761359f612c89565b5b828204905092915050565b60006040820190506135c060008301856126f5565b6135cd60208301846126f5565b939250505056fea26469706673582212207a67687b3d3816055413eba94e846412e9bdffbac7278cff7c12211c3b031a9364736f6c634300081b0033",
  "linkReferences": {},
  "deployedLinkReferences": {}
}